{
  "_format": "hh-sol-artifact-1",
  "contractName": "NFTMarketplace",
  "sourceName": "contracts/NFTMarketplace.sol",
  "abi": [
    {
      "inputs": [],
      "stateMutability": "nonpayable",
      "type": "constructor"
    },
    {
      "anonymous": false,
      "inputs": [
        {
          "indexed": true,
          "internalType": "address",
          "name": "owner",
          "type": "address"
        },
        {
          "indexed": true,
          "internalType": "address",
          "name": "approved",
          "type": "address"
        },
        {
          "indexed": true,
          "internalType": "uint256",
          "name": "tokenId",
          "type": "uint256"
        }
      ],
      "name": "Approval",
      "type": "event"
    },
    {
      "anonymous": false,
      "inputs": [
        {
          "indexed": true,
          "internalType": "address",
          "name": "owner",
          "type": "address"
        },
        {
          "indexed": true,
          "internalType": "address",
          "name": "operator",
          "type": "address"
        },
        {
          "indexed": false,
          "internalType": "bool",
          "name": "approved",
          "type": "bool"
        }
      ],
      "name": "ApprovalForAll",
      "type": "event"
    },
    {
      "anonymous": false,
      "inputs": [
        {
          "indexed": true,
          "internalType": "uint256",
          "name": "tokenId",
          "type": "uint256"
        },
        {
          "indexed": false,
          "internalType": "address",
          "name": "seller",
          "type": "address"
        },
        {
          "indexed": false,
          "internalType": "address",
          "name": "owner",
          "type": "address"
        },
        {
          "indexed": false,
          "internalType": "uint256",
          "name": "price",
          "type": "uint256"
        },
        {
          "indexed": false,
          "internalType": "bool",
          "name": "sold",
          "type": "bool"
        }
      ],
      "name": "MarketItemCreated",
      "type": "event"
    },
    {
      "anonymous": false,
      "inputs": [
        {
          "indexed": true,
          "internalType": "address",
          "name": "from",
          "type": "address"
        },
        {
          "indexed": true,
          "internalType": "address",
          "name": "to",
          "type": "address"
        },
        {
          "indexed": true,
          "internalType": "uint256",
          "name": "tokenId",
          "type": "uint256"
        }
      ],
      "name": "Transfer",
      "type": "event"
    },
    {
      "inputs": [
        {
          "internalType": "address",
          "name": "to",
          "type": "address"
        },
        {
          "internalType": "uint256",
          "name": "tokenId",
          "type": "uint256"
        }
      ],
      "name": "approve",
      "outputs": [],
      "stateMutability": "nonpayable",
      "type": "function"
    },
    {
      "inputs": [
        {
          "internalType": "address",
          "name": "owner",
          "type": "address"
        }
      ],
      "name": "balanceOf",
      "outputs": [
        {
          "internalType": "uint256",
          "name": "",
          "type": "uint256"
        }
      ],
      "stateMutability": "view",
      "type": "function"
    },
    {
      "inputs": [
        {
          "internalType": "uint256",
          "name": "tokenId",
          "type": "uint256"
        }
      ],
      "name": "createMarketSale",
      "outputs": [],
      "stateMutability": "payable",
      "type": "function"
    },
    {
      "inputs": [
        {
          "internalType": "string",
          "name": "tokenURI",
          "type": "string"
        },
        {
          "internalType": "uint256",
          "name": "price",
          "type": "uint256"
        },
        {
          "internalType": "uint256",
          "name": "_feePercent",
          "type": "uint256"
        }
      ],
      "name": "createToken",
      "outputs": [
        {
          "internalType": "uint256",
          "name": "",
          "type": "uint256"
        }
      ],
      "stateMutability": "payable",
      "type": "function"
    },
    {
      "inputs": [],
      "name": "fetchItemsListed",
      "outputs": [
        {
          "components": [
            {
              "internalType": "uint256",
              "name": "tokenId",
              "type": "uint256"
            },
            {
              "internalType": "address payable",
              "name": "seller",
              "type": "address"
            },
            {
              "internalType": "address payable",
              "name": "owner",
              "type": "address"
            },
            {
              "internalType": "uint256",
              "name": "price",
              "type": "uint256"
            },
            {
              "internalType": "bool",
              "name": "sold",
              "type": "bool"
            }
          ],
          "internalType": "struct NFTMarketplace.MarketItem[]",
          "name": "",
          "type": "tuple[]"
        }
      ],
      "stateMutability": "view",
      "type": "function"
    },
    {
      "inputs": [],
      "name": "fetchMarketItems",
      "outputs": [
        {
          "components": [
            {
              "internalType": "uint256",
              "name": "tokenId",
              "type": "uint256"
            },
            {
              "internalType": "address payable",
              "name": "seller",
              "type": "address"
            },
            {
              "internalType": "address payable",
              "name": "owner",
              "type": "address"
            },
            {
              "internalType": "uint256",
              "name": "price",
              "type": "uint256"
            },
            {
              "internalType": "bool",
              "name": "sold",
              "type": "bool"
            }
          ],
          "internalType": "struct NFTMarketplace.MarketItem[]",
          "name": "",
          "type": "tuple[]"
        }
      ],
      "stateMutability": "view",
      "type": "function"
    },
    {
      "inputs": [],
      "name": "fetchMyNFTs",
      "outputs": [
        {
          "components": [
            {
              "internalType": "uint256",
              "name": "tokenId",
              "type": "uint256"
            },
            {
              "internalType": "address payable",
              "name": "seller",
              "type": "address"
            },
            {
              "internalType": "address payable",
              "name": "owner",
              "type": "address"
            },
            {
              "internalType": "uint256",
              "name": "price",
              "type": "uint256"
            },
            {
              "internalType": "bool",
              "name": "sold",
              "type": "bool"
            }
          ],
          "internalType": "struct NFTMarketplace.MarketItem[]",
          "name": "",
          "type": "tuple[]"
        }
      ],
      "stateMutability": "view",
      "type": "function"
    },
    {
      "inputs": [
        {
          "internalType": "uint256",
          "name": "tokenId",
          "type": "uint256"
        }
      ],
      "name": "getApproved",
      "outputs": [
        {
          "internalType": "address",
          "name": "",
          "type": "address"
        }
      ],
      "stateMutability": "view",
      "type": "function"
    },
    {
      "inputs": [],
      "name": "getListingPrice",
      "outputs": [
        {
          "internalType": "uint256",
          "name": "",
          "type": "uint256"
        }
      ],
      "stateMutability": "view",
      "type": "function"
    },
    {
      "inputs": [
        {
          "internalType": "uint256",
          "name": "tokenId",
          "type": "uint256"
        }
      ],
      "name": "getTotalPrice",
      "outputs": [
        {
          "internalType": "uint256",
          "name": "",
          "type": "uint256"
        }
      ],
      "stateMutability": "view",
      "type": "function"
    },
    {
      "inputs": [
        {
          "internalType": "address",
          "name": "owner",
          "type": "address"
        },
        {
          "internalType": "address",
          "name": "operator",
          "type": "address"
        }
      ],
      "name": "isApprovedForAll",
      "outputs": [
        {
          "internalType": "bool",
          "name": "",
          "type": "bool"
        }
      ],
      "stateMutability": "view",
      "type": "function"
    },
    {
      "inputs": [],
      "name": "name",
      "outputs": [
        {
          "internalType": "string",
          "name": "",
          "type": "string"
        }
      ],
      "stateMutability": "view",
      "type": "function"
    },
    {
      "inputs": [
        {
          "internalType": "uint256",
          "name": "tokenId",
          "type": "uint256"
        }
      ],
      "name": "ownerOf",
      "outputs": [
        {
          "internalType": "address",
          "name": "",
          "type": "address"
        }
      ],
      "stateMutability": "view",
      "type": "function"
    },
    {
      "inputs": [
        {
          "internalType": "uint256",
          "name": "tokenId",
          "type": "uint256"
        },
        {
          "internalType": "uint256",
          "name": "price",
          "type": "uint256"
        }
      ],
      "name": "resellToken",
      "outputs": [],
      "stateMutability": "payable",
      "type": "function"
    },
    {
      "inputs": [
        {
          "internalType": "uint256",
          "name": "",
          "type": "uint256"
        }
      ],
      "name": "royalties",
      "outputs": [
        {
          "internalType": "uint256",
          "name": "feePercent",
          "type": "uint256"
        }
      ],
      "stateMutability": "view",
      "type": "function"
    },
    {
      "inputs": [
        {
          "internalType": "uint256",
          "name": "_tokenId",
          "type": "uint256"
        },
        {
          "internalType": "uint256",
          "name": "_salePrice",
          "type": "uint256"
        }
      ],
      "name": "royaltyInfo",
      "outputs": [
        {
          "internalType": "address",
          "name": "",
          "type": "address"
        },
        {
          "internalType": "uint256",
          "name": "",
          "type": "uint256"
        }
      ],
      "stateMutability": "view",
      "type": "function"
    },
    {
      "inputs": [
        {
          "internalType": "address",
          "name": "from",
          "type": "address"
        },
        {
          "internalType": "address",
          "name": "to",
          "type": "address"
        },
        {
          "internalType": "uint256",
          "name": "tokenId",
          "type": "uint256"
        }
      ],
      "name": "safeTransferFrom",
      "outputs": [],
      "stateMutability": "nonpayable",
      "type": "function"
    },
    {
      "inputs": [
        {
          "internalType": "address",
          "name": "from",
          "type": "address"
        },
        {
          "internalType": "address",
          "name": "to",
          "type": "address"
        },
        {
          "internalType": "uint256",
          "name": "tokenId",
          "type": "uint256"
        },
        {
          "internalType": "bytes",
          "name": "data",
          "type": "bytes"
        }
      ],
      "name": "safeTransferFrom",
      "outputs": [],
      "stateMutability": "nonpayable",
      "type": "function"
    },
    {
      "inputs": [
        {
          "internalType": "address",
          "name": "operator",
          "type": "address"
        },
        {
          "internalType": "bool",
          "name": "approved",
          "type": "bool"
        }
      ],
      "name": "setApprovalForAll",
      "outputs": [],
      "stateMutability": "nonpayable",
      "type": "function"
    },
    {
      "inputs": [
        {
          "internalType": "uint256",
          "name": "_newRoyaltyFee",
          "type": "uint256"
        }
      ],
      "name": "setRoyaltyFee",
      "outputs": [],
      "stateMutability": "nonpayable",
      "type": "function"
    },
    {
      "inputs": [
        {
          "internalType": "bytes4",
          "name": "interfaceId",
          "type": "bytes4"
        }
      ],
      "name": "supportsInterface",
      "outputs": [
        {
          "internalType": "bool",
          "name": "",
          "type": "bool"
        }
      ],
      "stateMutability": "view",
      "type": "function"
    },
    {
      "inputs": [],
      "name": "symbol",
      "outputs": [
        {
          "internalType": "string",
          "name": "",
          "type": "string"
        }
      ],
      "stateMutability": "view",
      "type": "function"
    },
    {
      "inputs": [
        {
          "internalType": "uint256",
          "name": "tokenId",
          "type": "uint256"
        }
      ],
      "name": "tokenURI",
      "outputs": [
        {
          "internalType": "string",
          "name": "",
          "type": "string"
        }
      ],
      "stateMutability": "view",
      "type": "function"
    },
    {
      "inputs": [
        {
          "internalType": "address",
          "name": "from",
          "type": "address"
        },
        {
          "internalType": "address",
          "name": "to",
          "type": "address"
        },
        {
          "internalType": "uint256",
          "name": "tokenId",
          "type": "uint256"
        }
      ],
      "name": "transferFrom",
      "outputs": [],
      "stateMutability": "nonpayable",
      "type": "function"
    },
    {
      "inputs": [
        {
          "internalType": "uint256",
          "name": "_listingPrice",
          "type": "uint256"
        }
      ],
      "name": "updateListingPrice",
      "outputs": [],
      "stateMutability": "payable",
      "type": "function"
    }
  ],
  "bytecode": "0x60806040526658d15e17628000600b553480156200001c57600080fd5b506040518060400160405280600a81526020017f4e616e616d65204e4654000000000000000000000000000000000000000000008152506040518060400160405280600381526020017f4e4e4d000000000000000000000000000000000000000000000000000000000081525081600090816200009a919062000530565b508060019081620000ac919062000530565b50505033600d60006101000a81548173ffffffffffffffffffffffffffffffffffffffff021916908373ffffffffffffffffffffffffffffffffffffffff160217905550620001033360646200010960201b60201c565b62000732565b62000119620002ac60201b60201c565b6bffffffffffffffffffffffff16816bffffffffffffffffffffffff1611156200017a576040517f08c379a000000000000000000000000000000000000000000000000000000000815260040162000171906200069e565b60405180910390fd5b600073ffffffffffffffffffffffffffffffffffffffff168273ffffffffffffffffffffffffffffffffffffffff1603620001ec576040517f08c379a0000000000000000000000000000000000000000000000000000000008152600401620001e39062000710565b60405180910390fd5b60405180604001604052808373ffffffffffffffffffffffffffffffffffffffff168152602001826bffffffffffffffffffffffff16815250600760008201518160000160006101000a81548173ffffffffffffffffffffffffffffffffffffffff021916908373ffffffffffffffffffffffffffffffffffffffff16021790555060208201518160000160146101000a8154816bffffffffffffffffffffffff02191690836bffffffffffffffffffffffff1602179055509050505050565b6000612710905090565b600081519050919050565b7f4e487b7100000000000000000000000000000000000000000000000000000000600052604160045260246000fd5b7f4e487b7100000000000000000000000000000000000000000000000000000000600052602260045260246000fd5b600060028204905060018216806200033857607f821691505b6020821081036200034e576200034d620002f0565b5b50919050565b60008190508160005260206000209050919050565b60006020601f8301049050919050565b600082821b905092915050565b600060088302620003b87fffffffffffffffffffffffffffffffffffffffffffffffffffffffffffffffff8262000379565b620003c4868362000379565b95508019841693508086168417925050509392505050565b6000819050919050565b6000819050919050565b6000620004116200040b6200040584620003dc565b620003e6565b620003dc565b9050919050565b6000819050919050565b6200042d83620003f0565b620004456200043c8262000418565b84845462000386565b825550505050565b600090565b6200045c6200044d565b6200046981848462000422565b505050565b5b8181101562000491576200048560008262000452565b6001810190506200046f565b5050565b601f821115620004e057620004aa8162000354565b620004b58462000369565b81016020851015620004c5578190505b620004dd620004d48562000369565b8301826200046e565b50505b505050565b600082821c905092915050565b60006200050560001984600802620004e5565b1980831691505092915050565b6000620005208383620004f2565b9150826002028217905092915050565b6200053b82620002b6565b67ffffffffffffffff811115620005575762000556620002c1565b5b6200056382546200031f565b6200057082828562000495565b600060209050601f831160018114620005a8576000841562000593578287015190505b6200059f858262000512565b8655506200060f565b601f198416620005b88662000354565b60005b82811015620005e257848901518255600182019150602085019450602081019050620005bb565b86831015620006025784890151620005fe601f891682620004f2565b8355505b6001600288020188555050505b505050505050565b600082825260208201905092915050565b7f455243323938313a20726f79616c7479206665652077696c6c2065786365656460008201527f2073616c65507269636500000000000000000000000000000000000000000000602082015250565b600062000686602a8362000617565b9150620006938262000628565b604082019050919050565b60006020820190508181036000830152620006b98162000677565b9050919050565b7f455243323938313a20696e76616c696420726563656976657200000000000000600082015250565b6000620006f860198362000617565b91506200070582620006c0565b602082019050919050565b600060208201905081810360008301526200072b81620006e9565b9050919050565b61495c80620007426000396000f3fe6080604052600436106101665760003560e01c80636352211e116100d1578063b88d4fde1161008a578063c87b56dd11610064578063c87b56dd1461053a578063ca7dd37514610577578063e219fc75146105b4578063e985e9c5146105d057610166565b8063b88d4fde146104c5578063be9af536146104ee578063bec2a7c51461050a57610166565b80636352211e1461039e57806370a08231146103db5780637f77f5741461041857806395d89b4114610455578063a22cb46514610480578063ae677aa3146104a957610166565b8063202e374011610123578063202e37401461028f57806323b872dd146102ba5780632a55205a146102e35780633e4086e51461032157806342842e0e1461034a57806345f8fa801461037357610166565b806301ffc9a71461016b57806306fdde03146101a8578063081812fc146101d3578063095ea7b3146102105780630f08efe01461023957806312e8558514610264575b600080fd5b34801561017757600080fd5b50610192600480360381019061018d91906130df565b61060d565b60405161019f9190613127565b60405180910390f35b3480156101b457600080fd5b506101bd61061f565b6040516101ca91906131d2565b60405180910390f35b3480156101df57600080fd5b506101fa60048036038101906101f5919061322a565b6106b1565b6040516102079190613298565b60405180910390f35b34801561021c57600080fd5b50610237600480360381019061023291906132df565b6106f7565b005b34801561024557600080fd5b5061024e61080e565b60405161025b9190613475565b60405180910390f35b34801561027057600080fd5b50610279610a76565b60405161028691906134a6565b60405180910390f35b34801561029b57600080fd5b506102a4610a80565b6040516102b19190613475565b60405180910390f35b3480156102c657600080fd5b506102e160048036038101906102dc91906134c1565b610d6c565b005b3480156102ef57600080fd5b5061030a60048036038101906103059190613514565b610dcc565b604051610318929190613554565b60405180910390f35b34801561032d57600080fd5b506103486004803603810190610343919061322a565b610fb6565b005b34801561035657600080fd5b50610371600480360381019061036c91906134c1565b610fc0565b005b34801561037f57600080fd5b50610388610fe0565b6040516103959190613475565b60405180910390f35b3480156103aa57600080fd5b506103c560048036038101906103c0919061322a565b6112cc565b6040516103d29190613298565b60405180910390f35b3480156103e757600080fd5b5061040260048036038101906103fd919061357d565b611352565b60405161040f91906134a6565b60405180910390f35b34801561042457600080fd5b5061043f600480360381019061043a919061322a565b611409565b60405161044c91906134a6565b60405180910390f35b34801561046157600080fd5b5061046a611427565b60405161047791906131d2565b60405180910390f35b34801561048c57600080fd5b506104a760048036038101906104a291906135d6565b6114b9565b005b6104c360048036038101906104be919061322a565b6114cf565b005b3480156104d157600080fd5b506104ec60048036038101906104e7919061374b565b6115f9565b005b6105086004803603810190610503919061322a565b61165b565b005b610524600480360381019061051f919061386f565b611885565b60405161053191906134a6565b60405180910390f35b34801561054657600080fd5b50610561600480360381019061055c919061322a565b6118c9565b60405161056e91906131d2565b60405180910390f35b34801561058357600080fd5b5061059e6004803603810190610599919061322a565b6119db565b6040516105ab91906134a6565b60405180910390f35b6105ce60048036038101906105c99190613514565b611a34565b005b3480156105dc57600080fd5b506105f760048036038101906105f291906138de565b611c1f565b6040516106049190613127565b60405180910390f35b600061061882611cb3565b9050919050565b60606000805461062e9061394d565b80601f016020809104026020016040519081016040528092919081815260200182805461065a9061394d565b80156106a75780601f1061067c576101008083540402835291602001916106a7565b820191906000526020600020905b81548152906001019060200180831161068a57829003601f168201915b5050505050905090565b60006106bc82611d2d565b6004600083815260200190815260200160002060009054906101000a900473ffffffffffffffffffffffffffffffffffffffff169050919050565b6000610702826112cc565b90508073ffffffffffffffffffffffffffffffffffffffff168373ffffffffffffffffffffffffffffffffffffffff1603610772576040517f08c379a0000000000000000000000000000000000000000000000000000000008152600401610769906139f0565b60405180910390fd5b8073ffffffffffffffffffffffffffffffffffffffff16610791611d78565b73ffffffffffffffffffffffffffffffffffffffff1614806107c057506107bf816107ba611d78565b611c1f565b5b6107ff576040517f08c379a00000000000000000000000000000000000000000000000000000000081526004016107f690613a82565b60405180910390fd5b6108098383611d80565b505050565b6060600061081c6009611e39565b9050600061082a600a611e39565b6108346009611e39565b61083e9190613ad1565b90506000808267ffffffffffffffff81111561085d5761085c613620565b5b60405190808252806020026020018201604052801561089657816020015b610883613016565b81526020019060019003908161087b5790505b50905060005b84811015610a6b573073ffffffffffffffffffffffffffffffffffffffff16600e60006001846108cc9190613b05565b815260200190815260200160002060020160009054906101000a900473ffffffffffffffffffffffffffffffffffffffff1673ffffffffffffffffffffffffffffffffffffffff1603610a585760006001826109289190613b05565b90506000600e60008381526020019081526020016000209050806040518060a0016040529081600082015481526020016001820160009054906101000a900473ffffffffffffffffffffffffffffffffffffffff1673ffffffffffffffffffffffffffffffffffffffff1673ffffffffffffffffffffffffffffffffffffffff1681526020016002820160009054906101000a900473ffffffffffffffffffffffffffffffffffffffff1673ffffffffffffffffffffffffffffffffffffffff1673ffffffffffffffffffffffffffffffffffffffff168152602001600382015481526020016004820160009054906101000a900460ff161515151581525050848681518110610a3b57610a3a613b39565b5b6020026020010181905250600185610a539190613b05565b945050505b8080610a6390613b68565b91505061089c565b508094505050505090565b6000600b54905090565b60606000610a8e6009611e39565b905060008060005b83811015610b36573373ffffffffffffffffffffffffffffffffffffffff16600e6000600184610ac69190613b05565b815260200190815260200160002060020160009054906101000a900473ffffffffffffffffffffffffffffffffffffffff1673ffffffffffffffffffffffffffffffffffffffff1603610b2357600183610b209190613b05565b92505b8080610b2e90613b68565b915050610a96565b5060008267ffffffffffffffff811115610b5357610b52613620565b5b604051908082528060200260200182016040528015610b8c57816020015b610b79613016565b815260200190600190039081610b715790505b50905060005b84811015610d61573373ffffffffffffffffffffffffffffffffffffffff16600e6000600184610bc29190613b05565b815260200190815260200160002060020160009054906101000a900473ffffffffffffffffffffffffffffffffffffffff1673ffffffffffffffffffffffffffffffffffffffff1603610d4e576000600182610c1e9190613b05565b90506000600e60008381526020019081526020016000209050806040518060a0016040529081600082015481526020016001820160009054906101000a900473ffffffffffffffffffffffffffffffffffffffff1673ffffffffffffffffffffffffffffffffffffffff1673ffffffffffffffffffffffffffffffffffffffff1681526020016002820160009054906101000a900473ffffffffffffffffffffffffffffffffffffffff1673ffffffffffffffffffffffffffffffffffffffff1673ffffffffffffffffffffffffffffffffffffffff168152602001600382015481526020016004820160009054906101000a900460ff161515151581525050848681518110610d3157610d30613b39565b5b6020026020010181905250600185610d499190613b05565b945050505b8080610d5990613b68565b915050610b92565b508094505050505090565b610d7d610d77611d78565b82611e47565b610dbc576040517f08c379a0000000000000000000000000000000000000000000000000000000008152600401610db390613c22565b60405180910390fd5b610dc7838383611edc565b505050565b6000806000600860008681526020019081526020016000206040518060400160405290816000820160009054906101000a900473ffffffffffffffffffffffffffffffffffffffff1673ffffffffffffffffffffffffffffffffffffffff1673ffffffffffffffffffffffffffffffffffffffff1681526020016000820160149054906101000a90046bffffffffffffffffffffffff166bffffffffffffffffffffffff166bffffffffffffffffffffffff16815250509050600073ffffffffffffffffffffffffffffffffffffffff16816000015173ffffffffffffffffffffffffffffffffffffffff1603610f615760076040518060400160405290816000820160009054906101000a900473ffffffffffffffffffffffffffffffffffffffff1673ffffffffffffffffffffffffffffffffffffffff1673ffffffffffffffffffffffffffffffffffffffff1681526020016000820160149054906101000a90046bffffffffffffffffffffffff166bffffffffffffffffffffffff166bffffffffffffffffffffffff168152505090505b6000610f6b6121d5565b6bffffffffffffffffffffffff1682602001516bffffffffffffffffffffffff1686610f979190613c42565b610fa19190613cb3565b90508160000151819350935050509250929050565b80600c8190555050565b610fdb838383604051806020016040528060008152506115f9565b505050565b60606000610fee6009611e39565b905060008060005b83811015611096573373ffffffffffffffffffffffffffffffffffffffff16600e60006001846110269190613b05565b815260200190815260200160002060010160009054906101000a900473ffffffffffffffffffffffffffffffffffffffff1673ffffffffffffffffffffffffffffffffffffffff1603611083576001836110809190613b05565b92505b808061108e90613b68565b915050610ff6565b5060008267ffffffffffffffff8111156110b3576110b2613620565b5b6040519080825280602002602001820160405280156110ec57816020015b6110d9613016565b8152602001906001900390816110d15790505b50905060005b848110156112c1573373ffffffffffffffffffffffffffffffffffffffff16600e60006001846111229190613b05565b815260200190815260200160002060010160009054906101000a900473ffffffffffffffffffffffffffffffffffffffff1673ffffffffffffffffffffffffffffffffffffffff16036112ae57600060018261117e9190613b05565b90506000600e60008381526020019081526020016000209050806040518060a0016040529081600082015481526020016001820160009054906101000a900473ffffffffffffffffffffffffffffffffffffffff1673ffffffffffffffffffffffffffffffffffffffff1673ffffffffffffffffffffffffffffffffffffffff1681526020016002820160009054906101000a900473ffffffffffffffffffffffffffffffffffffffff1673ffffffffffffffffffffffffffffffffffffffff1673ffffffffffffffffffffffffffffffffffffffff168152602001600382015481526020016004820160009054906101000a900460ff16151515158152505084868151811061129157611290613b39565b5b60200260200101819052506001856112a99190613b05565b945050505b80806112b990613b68565b9150506110f2565b508094505050505090565b6000806112d8836121df565b9050600073ffffffffffffffffffffffffffffffffffffffff168173ffffffffffffffffffffffffffffffffffffffff1603611349576040517f08c379a000000000000000000000000000000000000000000000000000000000815260040161134090613d30565b60405180910390fd5b80915050919050565b60008073ffffffffffffffffffffffffffffffffffffffff168273ffffffffffffffffffffffffffffffffffffffff16036113c2576040517f08c379a00000000000000000000000000000000000000000000000000000000081526004016113b990613dc2565b60405180910390fd5b600360008373ffffffffffffffffffffffffffffffffffffffff1673ffffffffffffffffffffffffffffffffffffffff168152602001908152602001600020549050919050565b600f6020528060005260406000206000915090508060000154905081565b6060600180546114369061394d565b80601f01602080910402602001604051908101604052809291908181526020018280546114629061394d565b80156114af5780601f10611484576101008083540402835291602001916114af565b820191906000526020600020905b81548152906001019060200180831161149257829003601f168201915b5050505050905090565b6114cb6114c4611d78565b838361221c565b5050565b600d60009054906101000a900473ffffffffffffffffffffffffffffffffffffffff1673ffffffffffffffffffffffffffffffffffffffff163373ffffffffffffffffffffffffffffffffffffffff161461155f576040517f08c379a000000000000000000000000000000000000000000000000000000000815260040161155690613e54565b60405180910390fd5b3373ffffffffffffffffffffffffffffffffffffffff16600d60009054906101000a900473ffffffffffffffffffffffffffffffffffffffff1673ffffffffffffffffffffffffffffffffffffffff16146115ef576040517f08c379a00000000000000000000000000000000000000000000000000000000081526004016115e690613ee6565b60405180910390fd5b80600b8190555050565b61160a611604611d78565b83611e47565b611649576040517f08c379a000000000000000000000000000000000000000000000000000000000815260040161164090613c22565b60405180910390fd5b61165584848484612388565b50505050565b6000611666826119db565b90508034146116aa576040517f08c379a00000000000000000000000000000000000000000000000000000000081526004016116a190613f78565b60405180910390fd5b33600e600084815260200190815260200160002060020160006101000a81548173ffffffffffffffffffffffffffffffffffffffff021916908373ffffffffffffffffffffffffffffffffffffffff1602179055506001600e600084815260200190815260200160002060040160006101000a81548160ff0219169083151502179055506000600e600084815260200190815260200160002060010160006101000a81548173ffffffffffffffffffffffffffffffffffffffff021916908373ffffffffffffffffffffffffffffffffffffffff16021790555061178e600a6123e4565b611799303384611edc565b600d60009054906101000a900473ffffffffffffffffffffffffffffffffffffffff1673ffffffffffffffffffffffffffffffffffffffff166108fc600b549081150290604051600060405180830381858888f19350505050158015611803573d6000803e3d6000fd5b50600e600083815260200190815260200160002060010160009054906101000a900473ffffffffffffffffffffffffffffffffffffffff1673ffffffffffffffffffffffffffffffffffffffff166108fc349081150290604051600060405180830381858888f19350505050158015611880573d6000803e3d6000fd5b505050565b600061189160096123e4565b600061189d6009611e39565b90506118a933826123fa565b6118b38186612617565b6118be818585612684565b809150509392505050565b60606118d482611d2d565b60006006600084815260200190815260200160002080546118f49061394d565b80601f01602080910402602001604051908101604052809291908181526020018280546119209061394d565b801561196d5780601f106119425761010080835404028352916020019161196d565b820191906000526020600020905b81548152906001019060200180831161195057829003601f168201915b50505050509050600061197e6128b7565b905060008151036119935781925050506119d6565b6000825111156119c85780826040516020016119b0929190613fd4565b604051602081830303815290604052925050506119d6565b6119d1846128ce565b925050505b919050565b60006064600f6000848152602001908152602001600020600001546064611a029190613b05565b600e600085815260200190815260200160002060030154611a239190613c42565b611a2d9190613cb3565b9050919050565b3373ffffffffffffffffffffffffffffffffffffffff16600e600084815260200190815260200160002060020160009054906101000a900473ffffffffffffffffffffffffffffffffffffffff1673ffffffffffffffffffffffffffffffffffffffff1614611ad8576040517f08c379a0000000000000000000000000000000000000000000000000000000008152600401611acf9061406a565b60405180910390fd5b600b543414611b1c576040517f08c379a0000000000000000000000000000000000000000000000000000000008152600401611b13906140fc565b60405180910390fd5b6000611b27836119db565b90506000600e600085815260200190815260200160002060040160006101000a81548160ff02191690831515021790555081905033600e600085815260200190815260200160002060010160006101000a81548173ffffffffffffffffffffffffffffffffffffffff021916908373ffffffffffffffffffffffffffffffffffffffff16021790555030600e600085815260200190815260200160002060020160006101000a81548173ffffffffffffffffffffffffffffffffffffffff021916908373ffffffffffffffffffffffffffffffffffffffff160217905550611c0f600a612936565b611c1a333085611edc565b505050565b6000600560008473ffffffffffffffffffffffffffffffffffffffff1673ffffffffffffffffffffffffffffffffffffffff16815260200190815260200160002060008373ffffffffffffffffffffffffffffffffffffffff1673ffffffffffffffffffffffffffffffffffffffff16815260200190815260200160002060009054906101000a900460ff16905092915050565b60007f2a55205a000000000000000000000000000000000000000000000000000000007bffffffffffffffffffffffffffffffffffffffffffffffffffffffff1916827bffffffffffffffffffffffffffffffffffffffffffffffffffffffff19161480611d265750611d2582612992565b5b9050919050565b611d3681612a74565b611d75576040517f08c379a0000000000000000000000000000000000000000000000000000000008152600401611d6c90613d30565b60405180910390fd5b50565b600033905090565b816004600083815260200190815260200160002060006101000a81548173ffffffffffffffffffffffffffffffffffffffff021916908373ffffffffffffffffffffffffffffffffffffffff160217905550808273ffffffffffffffffffffffffffffffffffffffff16611df3836112cc565b73ffffffffffffffffffffffffffffffffffffffff167f8c5be1e5ebec7d5bd14f71427d1e84f3dd0314c0f7b2291e5b200ac8c7c3b92560405160405180910390a45050565b600081600001549050919050565b600080611e53836112cc565b90508073ffffffffffffffffffffffffffffffffffffffff168473ffffffffffffffffffffffffffffffffffffffff161480611e955750611e948185611c1f565b5b80611ed357508373ffffffffffffffffffffffffffffffffffffffff16611ebb846106b1565b73ffffffffffffffffffffffffffffffffffffffff16145b91505092915050565b8273ffffffffffffffffffffffffffffffffffffffff16611efc826112cc565b73ffffffffffffffffffffffffffffffffffffffff1614611f52576040517f08c379a0000000000000000000000000000000000000000000000000000000008152600401611f499061418e565b60405180910390fd5b600073ffffffffffffffffffffffffffffffffffffffff168273ffffffffffffffffffffffffffffffffffffffff1603611fc1576040517f08c379a0000000000000000000000000000000000000000000000000000000008152600401611fb890614220565b60405180910390fd5b611fce8383836001612ab5565b8273ffffffffffffffffffffffffffffffffffffffff16611fee826112cc565b73ffffffffffffffffffffffffffffffffffffffff1614612044576040517f08c379a000000000000000000000000000000000000000000000000000000000815260040161203b9061418e565b60405180910390fd5b6004600082815260200190815260200160002060006101000a81549073ffffffffffffffffffffffffffffffffffffffff02191690556001600360008573ffffffffffffffffffffffffffffffffffffffff1673ffffffffffffffffffffffffffffffffffffffff168152602001908152602001600020600082825403925050819055506001600360008473ffffffffffffffffffffffffffffffffffffffff1673ffffffffffffffffffffffffffffffffffffffff16815260200190815260200160002060008282540192505081905550816002600083815260200190815260200160002060006101000a81548173ffffffffffffffffffffffffffffffffffffffff021916908373ffffffffffffffffffffffffffffffffffffffff160217905550808273ffffffffffffffffffffffffffffffffffffffff168473ffffffffffffffffffffffffffffffffffffffff167fddf252ad1be2c89b69c2b068fc378daa952ba7f163c4a11628f55a4df523b3ef60405160405180910390a46121d08383836001612bdb565b505050565b6000612710905090565b60006002600083815260200190815260200160002060009054906101000a900473ffffffffffffffffffffffffffffffffffffffff169050919050565b8173ffffffffffffffffffffffffffffffffffffffff168373ffffffffffffffffffffffffffffffffffffffff160361228a576040517f08c379a00000000000000000000000000000000000000000000000000000000081526004016122819061428c565b60405180910390fd5b80600560008573ffffffffffffffffffffffffffffffffffffffff1673ffffffffffffffffffffffffffffffffffffffff16815260200190815260200160002060008473ffffffffffffffffffffffffffffffffffffffff1673ffffffffffffffffffffffffffffffffffffffff16815260200190815260200160002060006101000a81548160ff0219169083151502179055508173ffffffffffffffffffffffffffffffffffffffff168373ffffffffffffffffffffffffffffffffffffffff167f17307eab39ab6107e8899845ad3d59bd9653f200f220920489ca2b5937696c318360405161237b9190613127565b60405180910390a3505050565b612393848484611edc565b61239f84848484612be1565b6123de576040517f08c379a00000000000000000000000000000000000000000000000000000000081526004016123d59061431e565b60405180910390fd5b50505050565b6001816000016000828254019250508190555050565b600073ffffffffffffffffffffffffffffffffffffffff168273ffffffffffffffffffffffffffffffffffffffff1603612469576040517f08c379a00000000000000000000000000000000000000000000000000000000081526004016124609061438a565b60405180910390fd5b61247281612a74565b156124b2576040517f08c379a00000000000000000000000000000000000000000000000000000000081526004016124a9906143f6565b60405180910390fd5b6124c0600083836001612ab5565b6124c981612a74565b15612509576040517f08c379a0000000000000000000000000000000000000000000000000000000008152600401612500906143f6565b60405180910390fd5b6001600360008473ffffffffffffffffffffffffffffffffffffffff1673ffffffffffffffffffffffffffffffffffffffff16815260200190815260200160002060008282540192505081905550816002600083815260200190815260200160002060006101000a81548173ffffffffffffffffffffffffffffffffffffffff021916908373ffffffffffffffffffffffffffffffffffffffff160217905550808273ffffffffffffffffffffffffffffffffffffffff16600073ffffffffffffffffffffffffffffffffffffffff167fddf252ad1be2c89b69c2b068fc378daa952ba7f163c4a11628f55a4df523b3ef60405160405180910390a4612613600083836001612bdb565b5050565b61262082612a74565b61265f576040517f08c379a000000000000000000000000000000000000000000000000000000000815260040161265690614488565b60405180910390fd5b8060066000848152602001908152602001600020908161267f9190614654565b505050565b600082116126c7576040517f08c379a00000000000000000000000000000000000000000000000000000000081526004016126be90614772565b60405180910390fd5b600b54341461270b576040517f08c379a0000000000000000000000000000000000000000000000000000000008152600401612702906140fc565b60405180910390fd5b6040518060a001604052808481526020013373ffffffffffffffffffffffffffffffffffffffff1681526020013073ffffffffffffffffffffffffffffffffffffffff16815260200183815260200160001515815250600e60008581526020019081526020016000206000820151816000015560208201518160010160006101000a81548173ffffffffffffffffffffffffffffffffffffffff021916908373ffffffffffffffffffffffffffffffffffffffff16021790555060408201518160020160006101000a81548173ffffffffffffffffffffffffffffffffffffffff021916908373ffffffffffffffffffffffffffffffffffffffff1602179055506060820151816003015560808201518160040160006101000a81548160ff021916908315150217905550905050612844333085611edc565b604051806020016040528082815250600f600085815260200190815260200160002060008201518160000155905050827fb640004f1d14576d0c209e240cad0410e0d8c0c33a09375861fbadae2588a98d33308560006040516128aa9493929190614792565b60405180910390a2505050565b606060405180602001604052806000815250905090565b60606128d982611d2d565b60006128e36128b7565b90506000815111612903576040518060200160405280600081525061292e565b8061290d84612d68565b60405160200161291e929190613fd4565b6040516020818303038152906040525b915050919050565b60008160000154905060008111612982576040517f08c379a000000000000000000000000000000000000000000000000000000000815260040161297990614823565b60405180910390fd5b6001810382600001819055505050565b60007f80ac58cd000000000000000000000000000000000000000000000000000000007bffffffffffffffffffffffffffffffffffffffffffffffffffffffff1916827bffffffffffffffffffffffffffffffffffffffffffffffffffffffff19161480612a5d57507f5b5e139f000000000000000000000000000000000000000000000000000000007bffffffffffffffffffffffffffffffffffffffffffffffffffffffff1916827bffffffffffffffffffffffffffffffffffffffffffffffffffffffff1916145b80612a6d5750612a6c82612e36565b5b9050919050565b60008073ffffffffffffffffffffffffffffffffffffffff16612a96836121df565b73ffffffffffffffffffffffffffffffffffffffff1614159050919050565b6001811115612bd557600073ffffffffffffffffffffffffffffffffffffffff168473ffffffffffffffffffffffffffffffffffffffff1614612b495780600360008673ffffffffffffffffffffffffffffffffffffffff1673ffffffffffffffffffffffffffffffffffffffff1681526020019081526020016000206000828254612b419190613ad1565b925050819055505b600073ffffffffffffffffffffffffffffffffffffffff168373ffffffffffffffffffffffffffffffffffffffff1614612bd45780600360008573ffffffffffffffffffffffffffffffffffffffff1673ffffffffffffffffffffffffffffffffffffffff1681526020019081526020016000206000828254612bcc9190613b05565b925050819055505b5b50505050565b50505050565b6000612c028473ffffffffffffffffffffffffffffffffffffffff16612ea0565b15612d5b578373ffffffffffffffffffffffffffffffffffffffff1663150b7a02612c2b611d78565b8786866040518563ffffffff1660e01b8152600401612c4d9493929190614898565b6020604051808303816000875af1925050508015612c8957506040513d601f19601f82011682018060405250810190612c8691906148f9565b60015b612d0b573d8060008114612cb9576040519150601f19603f3d011682016040523d82523d6000602084013e612cbe565b606091505b506000815103612d03576040517f08c379a0000000000000000000000000000000000000000000000000000000008152600401612cfa9061431e565b60405180910390fd5b805181602001fd5b63150b7a0260e01b7bffffffffffffffffffffffffffffffffffffffffffffffffffffffff1916817bffffffffffffffffffffffffffffffffffffffffffffffffffffffff191614915050612d60565b600190505b949350505050565b606060006001612d7784612ec3565b01905060008167ffffffffffffffff811115612d9657612d95613620565b5b6040519080825280601f01601f191660200182016040528015612dc85781602001600182028036833780820191505090505b509050600082602001820190505b600115612e2b578080600190039150507f3031323334353637383961626364656600000000000000000000000000000000600a86061a8153600a8581612e1f57612e1e613c84565b5b04945060008503612dd6575b819350505050919050565b60007f01ffc9a7000000000000000000000000000000000000000000000000000000007bffffffffffffffffffffffffffffffffffffffffffffffffffffffff1916827bffffffffffffffffffffffffffffffffffffffffffffffffffffffff1916149050919050565b6000808273ffffffffffffffffffffffffffffffffffffffff163b119050919050565b600080600090507a184f03e93ff9f4daa797ed6e38ed64bf6a1f0100000000000000008310612f21577a184f03e93ff9f4daa797ed6e38ed64bf6a1f0100000000000000008381612f1757612f16613c84565b5b0492506040810190505b6d04ee2d6d415b85acef81000000008310612f5e576d04ee2d6d415b85acef81000000008381612f5457612f53613c84565b5b0492506020810190505b662386f26fc100008310612f8d57662386f26fc100008381612f8357612f82613c84565b5b0492506010810190505b6305f5e1008310612fb6576305f5e1008381612fac57612fab613c84565b5b0492506008810190505b6127108310612fdb576127108381612fd157612fd0613c84565b5b0492506004810190505b60648310612ffe5760648381612ff457612ff3613c84565b5b0492506002810190505b600a831061300d576001810190505b80915050919050565b6040518060a0016040528060008152602001600073ffffffffffffffffffffffffffffffffffffffff168152602001600073ffffffffffffffffffffffffffffffffffffffff168152602001600081526020016000151581525090565b6000604051905090565b600080fd5b600080fd5b60007fffffffff0000000000000000000000000000000000000000000000000000000082169050919050565b6130bc81613087565b81146130c757600080fd5b50565b6000813590506130d9816130b3565b92915050565b6000602082840312156130f5576130f461307d565b5b6000613103848285016130ca565b91505092915050565b60008115159050919050565b6131218161310c565b82525050565b600060208201905061313c6000830184613118565b92915050565b600081519050919050565b600082825260208201905092915050565b60005b8381101561317c578082015181840152602081019050613161565b60008484015250505050565b6000601f19601f8301169050919050565b60006131a482613142565b6131ae818561314d565b93506131be81856020860161315e565b6131c781613188565b840191505092915050565b600060208201905081810360008301526131ec8184613199565b905092915050565b6000819050919050565b613207816131f4565b811461321257600080fd5b50565b600081359050613224816131fe565b92915050565b6000602082840312156132405761323f61307d565b5b600061324e84828501613215565b91505092915050565b600073ffffffffffffffffffffffffffffffffffffffff82169050919050565b600061328282613257565b9050919050565b61329281613277565b82525050565b60006020820190506132ad6000830184613289565b92915050565b6132bc81613277565b81146132c757600080fd5b50565b6000813590506132d9816132b3565b92915050565b600080604083850312156132f6576132f561307d565b5b6000613304858286016132ca565b925050602061331585828601613215565b9150509250929050565b600081519050919050565b600082825260208201905092915050565b6000819050602082019050919050565b613354816131f4565b82525050565b600061336582613257565b9050919050565b6133758161335a565b82525050565b6133848161310c565b82525050565b60a0820160008201516133a0600085018261334b565b5060208201516133b3602085018261336c565b5060408201516133c6604085018261336c565b5060608201516133d9606085018261334b565b5060808201516133ec608085018261337b565b50505050565b60006133fe838361338a565b60a08301905092915050565b6000602082019050919050565b60006134228261331f565b61342c818561332a565b93506134378361333b565b8060005b8381101561346857815161344f88826133f2565b975061345a8361340a565b92505060018101905061343b565b5085935050505092915050565b6000602082019050818103600083015261348f8184613417565b905092915050565b6134a0816131f4565b82525050565b60006020820190506134bb6000830184613497565b92915050565b6000806000606084860312156134da576134d961307d565b5b60006134e8868287016132ca565b93505060206134f9868287016132ca565b925050604061350a86828701613215565b9150509250925092565b6000806040838503121561352b5761352a61307d565b5b600061353985828601613215565b925050602061354a85828601613215565b9150509250929050565b60006040820190506135696000830185613289565b6135766020830184613497565b9392505050565b6000602082840312156135935761359261307d565b5b60006135a1848285016132ca565b91505092915050565b6135b38161310c565b81146135be57600080fd5b50565b6000813590506135d0816135aa565b92915050565b600080604083850312156135ed576135ec61307d565b5b60006135fb858286016132ca565b925050602061360c858286016135c1565b9150509250929050565b600080fd5b600080fd5b7f4e487b7100000000000000000000000000000000000000000000000000000000600052604160045260246000fd5b61365882613188565b810181811067ffffffffffffffff8211171561367757613676613620565b5b80604052505050565b600061368a613073565b9050613696828261364f565b919050565b600067ffffffffffffffff8211156136b6576136b5613620565b5b6136bf82613188565b9050602081019050919050565b82818337600083830152505050565b60006136ee6136e98461369b565b613680565b90508281526020810184848401111561370a5761370961361b565b5b6137158482856136cc565b509392505050565b600082601f83011261373257613731613616565b5b81356137428482602086016136db565b91505092915050565b600080600080608085870312156137655761376461307d565b5b6000613773878288016132ca565b9450506020613784878288016132ca565b935050604061379587828801613215565b925050606085013567ffffffffffffffff8111156137b6576137b5613082565b5b6137c28782880161371d565b91505092959194509250565b600067ffffffffffffffff8211156137e9576137e8613620565b5b6137f282613188565b9050602081019050919050565b600061381261380d846137ce565b613680565b90508281526020810184848401111561382e5761382d61361b565b5b6138398482856136cc565b509392505050565b600082601f83011261385657613855613616565b5b81356138668482602086016137ff565b91505092915050565b6000806000606084860312156138885761388761307d565b5b600084013567ffffffffffffffff8111156138a6576138a5613082565b5b6138b286828701613841565b93505060206138c386828701613215565b92505060406138d486828701613215565b9150509250925092565b600080604083850312156138f5576138f461307d565b5b6000613903858286016132ca565b9250506020613914858286016132ca565b9150509250929050565b7f4e487b7100000000000000000000000000000000000000000000000000000000600052602260045260246000fd5b6000600282049050600182168061396557607f821691505b6020821081036139785761397761391e565b5b50919050565b7f4552433732313a20617070726f76616c20746f2063757272656e74206f776e6560008201527f7200000000000000000000000000000000000000000000000000000000000000602082015250565b60006139da60218361314d565b91506139e58261397e565b604082019050919050565b60006020820190508181036000830152613a09816139cd565b9050919050565b7f4552433732313a20617070726f76652063616c6c6572206973206e6f7420746f60008201527f6b656e206f776e6572206f7220617070726f76656420666f7220616c6c000000602082015250565b6000613a6c603d8361314d565b9150613a7782613a10565b604082019050919050565b60006020820190508181036000830152613a9b81613a5f565b9050919050565b7f4e487b7100000000000000000000000000000000000000000000000000000000600052601160045260246000fd5b6000613adc826131f4565b9150613ae7836131f4565b9250828203905081811115613aff57613afe613aa2565b5b92915050565b6000613b10826131f4565b9150613b1b836131f4565b9250828201905080821115613b3357613b32613aa2565b5b92915050565b7f4e487b7100000000000000000000000000000000000000000000000000000000600052603260045260246000fd5b6000613b73826131f4565b91507fffffffffffffffffffffffffffffffffffffffffffffffffffffffffffffffff8203613ba557613ba4613aa2565b5b600182019050919050565b7f4552433732313a2063616c6c6572206973206e6f7420746f6b656e206f776e6560008201527f72206f7220617070726f76656400000000000000000000000000000000000000602082015250565b6000613c0c602d8361314d565b9150613c1782613bb0565b604082019050919050565b60006020820190508181036000830152613c3b81613bff565b9050919050565b6000613c4d826131f4565b9150613c58836131f4565b9250828202613c66816131f4565b91508282048414831517613c7d57613c7c613aa2565b5b5092915050565b7f4e487b7100000000000000000000000000000000000000000000000000000000600052601260045260246000fd5b6000613cbe826131f4565b9150613cc9836131f4565b925082613cd957613cd8613c84565b5b828204905092915050565b7f4552433732313a20696e76616c696420746f6b656e2049440000000000000000600082015250565b6000613d1a60188361314d565b9150613d2582613ce4565b602082019050919050565b60006020820190508181036000830152613d4981613d0d565b9050919050565b7f4552433732313a2061646472657373207a65726f206973206e6f74206120766160008201527f6c6964206f776e65720000000000000000000000000000000000000000000000602082015250565b6000613dac60298361314d565b9150613db782613d50565b604082019050919050565b60006020820190508181036000830152613ddb81613d9f565b9050919050565b7f4f6e6c79206f776e6572206f6620746865206d61726b6574706c61636520636160008201527f6e206368616e676520746865206c697374696e67207072696365000000000000602082015250565b6000613e3e603a8361314d565b9150613e4982613de2565b604082019050919050565b60006020820190508181036000830152613e6d81613e31565b9050919050565b7f4f6e6c79206d61726b6574706c616365206f776e65722063616e20757064617460008201527f65206c697374696e672070726963652e00000000000000000000000000000000602082015250565b6000613ed060308361314d565b9150613edb82613e74565b604082019050919050565b60006020820190508181036000830152613eff81613ec3565b9050919050565b7f506c65617365207375626d6974207468652061736b696e67207072696365206960008201527f6e206f7264657220746f20636f6d706c65746520746865207075726368617365602082015250565b6000613f6260408361314d565b9150613f6d82613f06565b604082019050919050565b60006020820190508181036000830152613f9181613f55565b9050919050565b600081905092915050565b6000613fae82613142565b613fb88185613f98565b9350613fc881856020860161315e565b80840191505092915050565b6000613fe08285613fa3565b9150613fec8284613fa3565b91508190509392505050565b7f4f6e6c79206974656d206f776e65722063616e20706572666f726d207468697360008201527f206f7065726174696f6e00000000000000000000000000000000000000000000602082015250565b6000614054602a8361314d565b915061405f82613ff8565b604082019050919050565b6000602082019050818103600083015261408381614047565b9050919050565b7f5072696365206d75737420626520657175616c20746f206c697374696e67207060008201527f7269636500000000000000000000000000000000000000000000000000000000602082015250565b60006140e660248361314d565b91506140f18261408a565b604082019050919050565b60006020820190508181036000830152614115816140d9565b9050919050565b7f4552433732313a207472616e736665722066726f6d20696e636f72726563742060008201527f6f776e6572000000000000000000000000000000000000000000000000000000602082015250565b600061417860258361314d565b91506141838261411c565b604082019050919050565b600060208201905081810360008301526141a78161416b565b9050919050565b7f4552433732313a207472616e7366657220746f20746865207a65726f2061646460008201527f7265737300000000000000000000000000000000000000000000000000000000602082015250565b600061420a60248361314d565b9150614215826141ae565b604082019050919050565b60006020820190508181036000830152614239816141fd565b9050919050565b7f4552433732313a20617070726f766520746f2063616c6c657200000000000000600082015250565b600061427660198361314d565b915061428182614240565b602082019050919050565b600060208201905081810360008301526142a581614269565b9050919050565b7f4552433732313a207472616e7366657220746f206e6f6e20455243373231526560008201527f63656976657220696d706c656d656e7465720000000000000000000000000000602082015250565b600061430860328361314d565b9150614313826142ac565b604082019050919050565b60006020820190508181036000830152614337816142fb565b9050919050565b7f4552433732313a206d696e7420746f20746865207a65726f2061646472657373600082015250565b600061437460208361314d565b915061437f8261433e565b602082019050919050565b600060208201905081810360008301526143a381614367565b9050919050565b7f4552433732313a20746f6b656e20616c7265616479206d696e74656400000000600082015250565b60006143e0601c8361314d565b91506143eb826143aa565b602082019050919050565b6000602082019050818103600083015261440f816143d3565b9050919050565b7f45524337323155524953746f726167653a2055524920736574206f66206e6f6e60008201527f6578697374656e7420746f6b656e000000000000000000000000000000000000602082015250565b6000614472602e8361314d565b915061447d82614416565b604082019050919050565b600060208201905081810360008301526144a181614465565b9050919050565b60008190508160005260206000209050919050565b60006020601f8301049050919050565b600082821b905092915050565b60006008830261450a7fffffffffffffffffffffffffffffffffffffffffffffffffffffffffffffffff826144cd565b61451486836144cd565b95508019841693508086168417925050509392505050565b6000819050919050565b600061455161454c614547846131f4565b61452c565b6131f4565b9050919050565b6000819050919050565b61456b83614536565b61457f61457782614558565b8484546144da565b825550505050565b600090565b614594614587565b61459f818484614562565b505050565b5b818110156145c3576145b860008261458c565b6001810190506145a5565b5050565b601f821115614608576145d9816144a8565b6145e2846144bd565b810160208510156145f1578190505b6146056145fd856144bd565b8301826145a4565b50505b505050565b600082821c905092915050565b600061462b6000198460080261460d565b1980831691505092915050565b6000614644838361461a565b9150826002028217905092915050565b61465d82613142565b67ffffffffffffffff81111561467657614675613620565b5b614680825461394d565b61468b8282856145c7565b600060209050601f8311600181146146be57600084156146ac578287015190505b6146b68582614638565b86555061471e565b601f1984166146cc866144a8565b60005b828110156146f4578489015182556001820191506020850194506020810190506146cf565b86831015614711578489015161470d601f89168261461a565b8355505b6001600288020188555050505b505050505050565b7f5072696365206d757374206265206174206c6561737420312077656900000000600082015250565b600061475c601c8361314d565b915061476782614726565b602082019050919050565b6000602082019050818103600083015261478b8161474f565b9050919050565b60006080820190506147a76000830187613289565b6147b46020830186613289565b6147c16040830185613497565b6147ce6060830184613118565b95945050505050565b7f436f756e7465723a2064656372656d656e74206f766572666c6f770000000000600082015250565b600061480d601b8361314d565b9150614818826147d7565b602082019050919050565b6000602082019050818103600083015261483c81614800565b9050919050565b600081519050919050565b600082825260208201905092915050565b600061486a82614843565b614874818561484e565b935061488481856020860161315e565b61488d81613188565b840191505092915050565b60006080820190506148ad6000830187613289565b6148ba6020830186613289565b6148c76040830185613497565b81810360608301526148d9818461485f565b905095945050505050565b6000815190506148f3816130b3565b92915050565b60006020828403121561490f5761490e61307d565b5b600061491d848285016148e4565b9150509291505056fea2646970667358221220d2ed581a665e6cc15ee2d73bda151f5224b8654328d839e22c545e55bd8190d664736f6c63430008110033",
  "linkReferences": {},
  "deployedLinkReferences": {}
}