{
  "_format": "hh-sol-artifact-1",
  "contractName": "NFTMarketplace",
  "sourceName": "contracts/NFTMarketplace.sol",
  "abi": [
    {
      "inputs": [],
      "stateMutability": "nonpayable",
      "type": "constructor"
    },
    {
      "anonymous": false,
      "inputs": [
        {
          "indexed": true,
          "internalType": "address",
          "name": "owner",
          "type": "address"
        },
        {
          "indexed": true,
          "internalType": "address",
          "name": "approved",
          "type": "address"
        },
        {
          "indexed": true,
          "internalType": "uint256",
          "name": "tokenId",
          "type": "uint256"
        }
      ],
      "name": "Approval",
      "type": "event"
    },
    {
      "anonymous": false,
      "inputs": [
        {
          "indexed": true,
          "internalType": "address",
          "name": "owner",
          "type": "address"
        },
        {
          "indexed": true,
          "internalType": "address",
          "name": "operator",
          "type": "address"
        },
        {
          "indexed": false,
          "internalType": "bool",
          "name": "approved",
          "type": "bool"
        }
      ],
      "name": "ApprovalForAll",
      "type": "event"
    },
    {
      "anonymous": false,
      "inputs": [
        {
          "indexed": true,
          "internalType": "uint256",
          "name": "tokenId",
          "type": "uint256"
        },
        {
          "indexed": false,
          "internalType": "address",
          "name": "seller",
          "type": "address"
        },
        {
          "indexed": false,
          "internalType": "address",
          "name": "owner",
          "type": "address"
        },
        {
          "indexed": false,
          "internalType": "uint256",
          "name": "price",
          "type": "uint256"
        },
        {
          "indexed": false,
          "internalType": "bool",
          "name": "sold",
          "type": "bool"
        }
      ],
      "name": "MarketItemCreated",
      "type": "event"
    },
    {
      "anonymous": false,
      "inputs": [
        {
          "indexed": true,
          "internalType": "address",
          "name": "from",
          "type": "address"
        },
        {
          "indexed": true,
          "internalType": "address",
          "name": "to",
          "type": "address"
        },
        {
          "indexed": true,
          "internalType": "uint256",
          "name": "tokenId",
          "type": "uint256"
        }
      ],
      "name": "Transfer",
      "type": "event"
    },
    {
      "inputs": [
        {
          "internalType": "address",
          "name": "to",
          "type": "address"
        },
        {
          "internalType": "uint256",
          "name": "tokenId",
          "type": "uint256"
        }
      ],
      "name": "approve",
      "outputs": [],
      "stateMutability": "nonpayable",
      "type": "function"
    },
    {
      "inputs": [
        {
          "internalType": "address",
          "name": "owner",
          "type": "address"
        }
      ],
      "name": "balanceOf",
      "outputs": [
        {
          "internalType": "uint256",
          "name": "",
          "type": "uint256"
        }
      ],
      "stateMutability": "view",
      "type": "function"
    },
    {
      "inputs": [
        {
          "internalType": "uint256",
          "name": "tokenId",
          "type": "uint256"
        }
      ],
      "name": "createMarketSale",
      "outputs": [],
      "stateMutability": "payable",
      "type": "function"
    },
    {
      "inputs": [
        {
          "internalType": "string",
          "name": "tokenURI",
          "type": "string"
        },
        {
          "internalType": "uint256",
          "name": "price",
          "type": "uint256"
        }
      ],
      "name": "createToken",
      "outputs": [
        {
          "internalType": "uint256",
          "name": "",
          "type": "uint256"
        }
      ],
      "stateMutability": "payable",
      "type": "function"
    },
    {
      "inputs": [],
      "name": "fetchItemsListed",
      "outputs": [
        {
          "components": [
            {
              "internalType": "uint256",
              "name": "tokenId",
              "type": "uint256"
            },
            {
              "internalType": "address payable",
              "name": "seller",
              "type": "address"
            },
            {
              "internalType": "address payable",
              "name": "owner",
              "type": "address"
            },
            {
              "internalType": "uint256",
              "name": "price",
              "type": "uint256"
            },
            {
              "internalType": "bool",
              "name": "sold",
              "type": "bool"
            }
          ],
          "internalType": "struct NFTMarketplace.MarketItem[]",
          "name": "",
          "type": "tuple[]"
        }
      ],
      "stateMutability": "view",
      "type": "function"
    },
    {
      "inputs": [],
      "name": "fetchMarketItems",
      "outputs": [
        {
          "components": [
            {
              "internalType": "uint256",
              "name": "tokenId",
              "type": "uint256"
            },
            {
              "internalType": "address payable",
              "name": "seller",
              "type": "address"
            },
            {
              "internalType": "address payable",
              "name": "owner",
              "type": "address"
            },
            {
              "internalType": "uint256",
              "name": "price",
              "type": "uint256"
            },
            {
              "internalType": "bool",
              "name": "sold",
              "type": "bool"
            }
          ],
          "internalType": "struct NFTMarketplace.MarketItem[]",
          "name": "",
          "type": "tuple[]"
        }
      ],
      "stateMutability": "view",
      "type": "function"
    },
    {
      "inputs": [],
      "name": "fetchMyNFTs",
      "outputs": [
        {
          "components": [
            {
              "internalType": "uint256",
              "name": "tokenId",
              "type": "uint256"
            },
            {
              "internalType": "address payable",
              "name": "seller",
              "type": "address"
            },
            {
              "internalType": "address payable",
              "name": "owner",
              "type": "address"
            },
            {
              "internalType": "uint256",
              "name": "price",
              "type": "uint256"
            },
            {
              "internalType": "bool",
              "name": "sold",
              "type": "bool"
            }
          ],
          "internalType": "struct NFTMarketplace.MarketItem[]",
          "name": "",
          "type": "tuple[]"
        }
      ],
      "stateMutability": "view",
      "type": "function"
    },
    {
      "inputs": [
        {
          "internalType": "uint256",
          "name": "tokenId",
          "type": "uint256"
        }
      ],
      "name": "getApproved",
      "outputs": [
        {
          "internalType": "address",
          "name": "",
          "type": "address"
        }
      ],
      "stateMutability": "view",
      "type": "function"
    },
    {
      "inputs": [],
      "name": "getListingPrice",
      "outputs": [
        {
          "internalType": "uint256",
          "name": "",
          "type": "uint256"
        }
      ],
      "stateMutability": "view",
      "type": "function"
    },
    {
      "inputs": [
        {
          "internalType": "address",
          "name": "owner",
          "type": "address"
        },
        {
          "internalType": "address",
          "name": "operator",
          "type": "address"
        }
      ],
      "name": "isApprovedForAll",
      "outputs": [
        {
          "internalType": "bool",
          "name": "",
          "type": "bool"
        }
      ],
      "stateMutability": "view",
      "type": "function"
    },
    {
      "inputs": [],
      "name": "name",
      "outputs": [
        {
          "internalType": "string",
          "name": "",
          "type": "string"
        }
      ],
      "stateMutability": "view",
      "type": "function"
    },
    {
      "inputs": [
        {
          "internalType": "uint256",
          "name": "tokenId",
          "type": "uint256"
        }
      ],
      "name": "ownerOf",
      "outputs": [
        {
          "internalType": "address",
          "name": "",
          "type": "address"
        }
      ],
      "stateMutability": "view",
      "type": "function"
    },
    {
      "inputs": [
        {
          "internalType": "uint256",
          "name": "tokenId",
          "type": "uint256"
        },
        {
          "internalType": "uint256",
          "name": "price",
          "type": "uint256"
        }
      ],
      "name": "resellToken",
      "outputs": [],
      "stateMutability": "payable",
      "type": "function"
    },
    {
      "inputs": [
        {
          "internalType": "uint256",
          "name": "_tokenId",
          "type": "uint256"
        },
        {
          "internalType": "uint256",
          "name": "_salePrice",
          "type": "uint256"
        }
      ],
      "name": "royaltyInfo",
      "outputs": [
        {
          "internalType": "address",
          "name": "",
          "type": "address"
        },
        {
          "internalType": "uint256",
          "name": "",
          "type": "uint256"
        }
      ],
      "stateMutability": "view",
      "type": "function"
    },
    {
      "inputs": [
        {
          "internalType": "address",
          "name": "from",
          "type": "address"
        },
        {
          "internalType": "address",
          "name": "to",
          "type": "address"
        },
        {
          "internalType": "uint256",
          "name": "tokenId",
          "type": "uint256"
        }
      ],
      "name": "safeTransferFrom",
      "outputs": [],
      "stateMutability": "nonpayable",
      "type": "function"
    },
    {
      "inputs": [
        {
          "internalType": "address",
          "name": "from",
          "type": "address"
        },
        {
          "internalType": "address",
          "name": "to",
          "type": "address"
        },
        {
          "internalType": "uint256",
          "name": "tokenId",
          "type": "uint256"
        },
        {
          "internalType": "bytes",
          "name": "data",
          "type": "bytes"
        }
      ],
      "name": "safeTransferFrom",
      "outputs": [],
      "stateMutability": "nonpayable",
      "type": "function"
    },
    {
      "inputs": [
        {
          "internalType": "address",
          "name": "operator",
          "type": "address"
        },
        {
          "internalType": "bool",
          "name": "approved",
          "type": "bool"
        }
      ],
      "name": "setApprovalForAll",
      "outputs": [],
      "stateMutability": "nonpayable",
      "type": "function"
    },
    {
      "inputs": [
        {
          "internalType": "bytes4",
          "name": "interfaceId",
          "type": "bytes4"
        }
      ],
      "name": "supportsInterface",
      "outputs": [
        {
          "internalType": "bool",
          "name": "",
          "type": "bool"
        }
      ],
      "stateMutability": "view",
      "type": "function"
    },
    {
      "inputs": [],
      "name": "symbol",
      "outputs": [
        {
          "internalType": "string",
          "name": "",
          "type": "string"
        }
      ],
      "stateMutability": "view",
      "type": "function"
    },
    {
      "inputs": [
        {
          "internalType": "uint256",
          "name": "tokenId",
          "type": "uint256"
        }
      ],
      "name": "tokenURI",
      "outputs": [
        {
          "internalType": "string",
          "name": "",
          "type": "string"
        }
      ],
      "stateMutability": "view",
      "type": "function"
    },
    {
      "inputs": [
        {
          "internalType": "address",
          "name": "from",
          "type": "address"
        },
        {
          "internalType": "address",
          "name": "to",
          "type": "address"
        },
        {
          "internalType": "uint256",
          "name": "tokenId",
          "type": "uint256"
        }
      ],
      "name": "transferFrom",
      "outputs": [],
      "stateMutability": "nonpayable",
      "type": "function"
    },
    {
      "inputs": [
        {
          "internalType": "uint256",
          "name": "_listingPrice",
          "type": "uint256"
        }
      ],
      "name": "updateListingPrice",
      "outputs": [],
      "stateMutability": "payable",
      "type": "function"
    }
  ],
  "bytecode": "0x60806040526658d15e17628000600b553480156200001c57600080fd5b506040518060400160405280600a81526020017f4e616e616d65204e4654000000000000000000000000000000000000000000008152506040518060400160405280600381526020017f4e4e4d000000000000000000000000000000000000000000000000000000000081525081600090816200009a919062000530565b508060019081620000ac919062000530565b50505033600c60006101000a81548173ffffffffffffffffffffffffffffffffffffffff021916908373ffffffffffffffffffffffffffffffffffffffff160217905550620001033360646200010960201b60201c565b62000732565b62000119620002ac60201b60201c565b6bffffffffffffffffffffffff16816bffffffffffffffffffffffff1611156200017a576040517f08c379a000000000000000000000000000000000000000000000000000000000815260040162000171906200069e565b60405180910390fd5b600073ffffffffffffffffffffffffffffffffffffffff168273ffffffffffffffffffffffffffffffffffffffff1603620001ec576040517f08c379a0000000000000000000000000000000000000000000000000000000008152600401620001e39062000710565b60405180910390fd5b60405180604001604052808373ffffffffffffffffffffffffffffffffffffffff168152602001826bffffffffffffffffffffffff16815250600760008201518160000160006101000a81548173ffffffffffffffffffffffffffffffffffffffff021916908373ffffffffffffffffffffffffffffffffffffffff16021790555060208201518160000160146101000a8154816bffffffffffffffffffffffff02191690836bffffffffffffffffffffffff1602179055509050505050565b6000612710905090565b600081519050919050565b7f4e487b7100000000000000000000000000000000000000000000000000000000600052604160045260246000fd5b7f4e487b7100000000000000000000000000000000000000000000000000000000600052602260045260246000fd5b600060028204905060018216806200033857607f821691505b6020821081036200034e576200034d620002f0565b5b50919050565b60008190508160005260206000209050919050565b60006020601f8301049050919050565b600082821b905092915050565b600060088302620003b87fffffffffffffffffffffffffffffffffffffffffffffffffffffffffffffffff8262000379565b620003c4868362000379565b95508019841693508086168417925050509392505050565b6000819050919050565b6000819050919050565b6000620004116200040b6200040584620003dc565b620003e6565b620003dc565b9050919050565b6000819050919050565b6200042d83620003f0565b620004456200043c8262000418565b84845462000386565b825550505050565b600090565b6200045c6200044d565b6200046981848462000422565b505050565b5b8181101562000491576200048560008262000452565b6001810190506200046f565b5050565b601f821115620004e057620004aa8162000354565b620004b58462000369565b81016020851015620004c5578190505b620004dd620004d48562000369565b8301826200046e565b50505b505050565b600082821c905092915050565b60006200050560001984600802620004e5565b1980831691505092915050565b6000620005208383620004f2565b9150826002028217905092915050565b6200053b82620002b6565b67ffffffffffffffff811115620005575762000556620002c1565b5b6200056382546200031f565b6200057082828562000495565b600060209050601f831160018114620005a8576000841562000593578287015190505b6200059f858262000512565b8655506200060f565b601f198416620005b88662000354565b60005b82811015620005e257848901518255600182019150602085019450602081019050620005bb565b86831015620006025784890151620005fe601f891682620004f2565b8355505b6001600288020188555050505b505050505050565b600082825260208201905092915050565b7f455243323938313a20726f79616c7479206665652077696c6c2065786365656460008201527f2073616c65507269636500000000000000000000000000000000000000000000602082015250565b600062000686602a8362000617565b9150620006938262000628565b604082019050919050565b60006020820190508181036000830152620006b98162000677565b9050919050565b7f455243323938313a20696e76616c696420726563656976657200000000000000600082015250565b6000620006f860198362000617565b91506200070582620006c0565b602082019050919050565b600060208201905081810360008301526200072b81620006e9565b9050919050565b6147da80620007426000396000f3fe6080604052600436106101355760003560e01c80636352211e116100ab578063ae677aa31161006f578063ae677aa314610442578063b88d4fde1461045e578063be9af53614610487578063c87b56dd146104a3578063e219fc75146104e0578063e985e9c5146104fc57610135565b80636352211e1461034457806370a082311461038157806372b3b620146103be57806395d89b41146103ee578063a22cb4651461041957610135565b806312e85585116100fd57806312e8558514610233578063202e37401461025e57806323b872dd146102895780632a55205a146102b257806342842e0e146102f057806345f8fa801461031957610135565b806301ffc9a71461013a57806306fdde0314610177578063081812fc146101a2578063095ea7b3146101df5780630f08efe014610208575b600080fd5b34801561014657600080fd5b50610161600480360381019061015c9190612f70565b610539565b60405161016e9190612fb8565b60405180910390f35b34801561018357600080fd5b5061018c61054b565b6040516101999190613063565b60405180910390f35b3480156101ae57600080fd5b506101c960048036038101906101c491906130bb565b6105dd565b6040516101d69190613129565b60405180910390f35b3480156101eb57600080fd5b5061020660048036038101906102019190613170565b610623565b005b34801561021457600080fd5b5061021d61073a565b60405161022a9190613306565b60405180910390f35b34801561023f57600080fd5b506102486109a2565b6040516102559190613337565b60405180910390f35b34801561026a57600080fd5b506102736109ac565b6040516102809190613306565b60405180910390f35b34801561029557600080fd5b506102b060048036038101906102ab9190613352565b610c98565b005b3480156102be57600080fd5b506102d960048036038101906102d491906133a5565b610cf8565b6040516102e79291906133e5565b60405180910390f35b3480156102fc57600080fd5b5061031760048036038101906103129190613352565b610ee2565b005b34801561032557600080fd5b5061032e610f02565b60405161033b9190613306565b60405180910390f35b34801561035057600080fd5b5061036b600480360381019061036691906130bb565b6111ee565b6040516103789190613129565b60405180910390f35b34801561038d57600080fd5b506103a860048036038101906103a3919061340e565b611274565b6040516103b59190613337565b60405180910390f35b6103d860048036038101906103d39190613570565b61132b565b6040516103e59190613337565b60405180910390f35b3480156103fa57600080fd5b5061040361136d565b6040516104109190613063565b60405180910390f35b34801561042557600080fd5b50610440600480360381019061043b91906135f8565b6113ff565b005b61045c600480360381019061045791906130bb565b611415565b005b34801561046a57600080fd5b50610485600480360381019061048091906136d9565b61153f565b005b6104a1600480360381019061049c91906130bb565b6115a1565b005b3480156104af57600080fd5b506104ca60048036038101906104c591906130bb565b6117d9565b6040516104d79190613063565b60405180910390f35b6104fa60048036038101906104f591906133a5565b6118eb565b005b34801561050857600080fd5b50610523600480360381019061051e919061375c565b611ae0565b6040516105309190612fb8565b60405180910390f35b600061054482611b74565b9050919050565b60606000805461055a906137cb565b80601f0160208091040260200160405190810160405280929190818152602001828054610586906137cb565b80156105d35780601f106105a8576101008083540402835291602001916105d3565b820191906000526020600020905b8154815290600101906020018083116105b657829003601f168201915b5050505050905090565b60006105e882611bee565b6004600083815260200190815260200160002060009054906101000a900473ffffffffffffffffffffffffffffffffffffffff169050919050565b600061062e826111ee565b90508073ffffffffffffffffffffffffffffffffffffffff168373ffffffffffffffffffffffffffffffffffffffff160361069e576040517f08c379a00000000000000000000000000000000000000000000000000000000081526004016106959061386e565b60405180910390fd5b8073ffffffffffffffffffffffffffffffffffffffff166106bd611c39565b73ffffffffffffffffffffffffffffffffffffffff1614806106ec57506106eb816106e6611c39565b611ae0565b5b61072b576040517f08c379a000000000000000000000000000000000000000000000000000000000815260040161072290613900565b60405180910390fd5b6107358383611c41565b505050565b606060006107486009611cfa565b90506000610756600a611cfa565b6107606009611cfa565b61076a919061394f565b90506000808267ffffffffffffffff81111561078957610788613445565b5b6040519080825280602002602001820160405280156107c257816020015b6107af612ea7565b8152602001906001900390816107a75790505b50905060005b84811015610997573073ffffffffffffffffffffffffffffffffffffffff16600d60006001846107f89190613983565b815260200190815260200160002060020160009054906101000a900473ffffffffffffffffffffffffffffffffffffffff1673ffffffffffffffffffffffffffffffffffffffff16036109845760006001826108549190613983565b90506000600d60008381526020019081526020016000209050806040518060a0016040529081600082015481526020016001820160009054906101000a900473ffffffffffffffffffffffffffffffffffffffff1673ffffffffffffffffffffffffffffffffffffffff1673ffffffffffffffffffffffffffffffffffffffff1681526020016002820160009054906101000a900473ffffffffffffffffffffffffffffffffffffffff1673ffffffffffffffffffffffffffffffffffffffff1673ffffffffffffffffffffffffffffffffffffffff168152602001600382015481526020016004820160009054906101000a900460ff161515151581525050848681518110610967576109666139b7565b5b602002602001018190525060018561097f9190613983565b945050505b808061098f906139e6565b9150506107c8565b508094505050505090565b6000600b54905090565b606060006109ba6009611cfa565b905060008060005b83811015610a62573373ffffffffffffffffffffffffffffffffffffffff16600d60006001846109f29190613983565b815260200190815260200160002060020160009054906101000a900473ffffffffffffffffffffffffffffffffffffffff1673ffffffffffffffffffffffffffffffffffffffff1603610a4f57600183610a4c9190613983565b92505b8080610a5a906139e6565b9150506109c2565b5060008267ffffffffffffffff811115610a7f57610a7e613445565b5b604051908082528060200260200182016040528015610ab857816020015b610aa5612ea7565b815260200190600190039081610a9d5790505b50905060005b84811015610c8d573373ffffffffffffffffffffffffffffffffffffffff16600d6000600184610aee9190613983565b815260200190815260200160002060020160009054906101000a900473ffffffffffffffffffffffffffffffffffffffff1673ffffffffffffffffffffffffffffffffffffffff1603610c7a576000600182610b4a9190613983565b90506000600d60008381526020019081526020016000209050806040518060a0016040529081600082015481526020016001820160009054906101000a900473ffffffffffffffffffffffffffffffffffffffff1673ffffffffffffffffffffffffffffffffffffffff1673ffffffffffffffffffffffffffffffffffffffff1681526020016002820160009054906101000a900473ffffffffffffffffffffffffffffffffffffffff1673ffffffffffffffffffffffffffffffffffffffff1673ffffffffffffffffffffffffffffffffffffffff168152602001600382015481526020016004820160009054906101000a900460ff161515151581525050848681518110610c5d57610c5c6139b7565b5b6020026020010181905250600185610c759190613983565b945050505b8080610c85906139e6565b915050610abe565b508094505050505090565b610ca9610ca3611c39565b82611d08565b610ce8576040517f08c379a0000000000000000000000000000000000000000000000000000000008152600401610cdf90613aa0565b60405180910390fd5b610cf3838383611d9d565b505050565b6000806000600860008681526020019081526020016000206040518060400160405290816000820160009054906101000a900473ffffffffffffffffffffffffffffffffffffffff1673ffffffffffffffffffffffffffffffffffffffff1673ffffffffffffffffffffffffffffffffffffffff1681526020016000820160149054906101000a90046bffffffffffffffffffffffff166bffffffffffffffffffffffff166bffffffffffffffffffffffff16815250509050600073ffffffffffffffffffffffffffffffffffffffff16816000015173ffffffffffffffffffffffffffffffffffffffff1603610e8d5760076040518060400160405290816000820160009054906101000a900473ffffffffffffffffffffffffffffffffffffffff1673ffffffffffffffffffffffffffffffffffffffff1673ffffffffffffffffffffffffffffffffffffffff1681526020016000820160149054906101000a90046bffffffffffffffffffffffff166bffffffffffffffffffffffff166bffffffffffffffffffffffff168152505090505b6000610e97612096565b6bffffffffffffffffffffffff1682602001516bffffffffffffffffffffffff1686610ec39190613ac0565b610ecd9190613b31565b90508160000151819350935050509250929050565b610efd8383836040518060200160405280600081525061153f565b505050565b60606000610f106009611cfa565b905060008060005b83811015610fb8573373ffffffffffffffffffffffffffffffffffffffff16600d6000600184610f489190613983565b815260200190815260200160002060010160009054906101000a900473ffffffffffffffffffffffffffffffffffffffff1673ffffffffffffffffffffffffffffffffffffffff1603610fa557600183610fa29190613983565b92505b8080610fb0906139e6565b915050610f18565b5060008267ffffffffffffffff811115610fd557610fd4613445565b5b60405190808252806020026020018201604052801561100e57816020015b610ffb612ea7565b815260200190600190039081610ff35790505b50905060005b848110156111e3573373ffffffffffffffffffffffffffffffffffffffff16600d60006001846110449190613983565b815260200190815260200160002060010160009054906101000a900473ffffffffffffffffffffffffffffffffffffffff1673ffffffffffffffffffffffffffffffffffffffff16036111d05760006001826110a09190613983565b90506000600d60008381526020019081526020016000209050806040518060a0016040529081600082015481526020016001820160009054906101000a900473ffffffffffffffffffffffffffffffffffffffff1673ffffffffffffffffffffffffffffffffffffffff1673ffffffffffffffffffffffffffffffffffffffff1681526020016002820160009054906101000a900473ffffffffffffffffffffffffffffffffffffffff1673ffffffffffffffffffffffffffffffffffffffff1673ffffffffffffffffffffffffffffffffffffffff168152602001600382015481526020016004820160009054906101000a900460ff1615151515815250508486815181106111b3576111b26139b7565b5b60200260200101819052506001856111cb9190613983565b945050505b80806111db906139e6565b915050611014565b508094505050505090565b6000806111fa836120a0565b9050600073ffffffffffffffffffffffffffffffffffffffff168173ffffffffffffffffffffffffffffffffffffffff160361126b576040517f08c379a000000000000000000000000000000000000000000000000000000000815260040161126290613bae565b60405180910390fd5b80915050919050565b60008073ffffffffffffffffffffffffffffffffffffffff168273ffffffffffffffffffffffffffffffffffffffff16036112e4576040517f08c379a00000000000000000000000000000000000000000000000000000000081526004016112db90613c40565b60405180910390fd5b600360008373ffffffffffffffffffffffffffffffffffffffff1673ffffffffffffffffffffffffffffffffffffffff168152602001908152602001600020549050919050565b600061133760096120dd565b60006113436009611cfa565b905061134f33826120f3565b6113598185612310565b611363818461237d565b8091505092915050565b60606001805461137c906137cb565b80601f01602080910402602001604051908101604052809291908181526020018280546113a8906137cb565b80156113f55780601f106113ca576101008083540402835291602001916113f5565b820191906000526020600020905b8154815290600101906020018083116113d857829003601f168201915b5050505050905090565b61141161140a611c39565b8383612580565b5050565b600c60009054906101000a900473ffffffffffffffffffffffffffffffffffffffff1673ffffffffffffffffffffffffffffffffffffffff163373ffffffffffffffffffffffffffffffffffffffff16146114a5576040517f08c379a000000000000000000000000000000000000000000000000000000000815260040161149c90613cd2565b60405180910390fd5b3373ffffffffffffffffffffffffffffffffffffffff16600c60009054906101000a900473ffffffffffffffffffffffffffffffffffffffff1673ffffffffffffffffffffffffffffffffffffffff1614611535576040517f08c379a000000000000000000000000000000000000000000000000000000000815260040161152c90613d64565b60405180910390fd5b80600b8190555050565b61155061154a611c39565b83611d08565b61158f576040517f08c379a000000000000000000000000000000000000000000000000000000000815260040161158690613aa0565b60405180910390fd5b61159b848484846126ec565b50505050565b6000600d60008381526020019081526020016000206003015490508034146115fe576040517f08c379a00000000000000000000000000000000000000000000000000000000081526004016115f590613df6565b60405180910390fd5b33600d600084815260200190815260200160002060020160006101000a81548173ffffffffffffffffffffffffffffffffffffffff021916908373ffffffffffffffffffffffffffffffffffffffff1602179055506001600d600084815260200190815260200160002060040160006101000a81548160ff0219169083151502179055506000600d600084815260200190815260200160002060010160006101000a81548173ffffffffffffffffffffffffffffffffffffffff021916908373ffffffffffffffffffffffffffffffffffffffff1602179055506116e2600a6120dd565b6116ed303384611d9d565b600c60009054906101000a900473ffffffffffffffffffffffffffffffffffffffff1673ffffffffffffffffffffffffffffffffffffffff166108fc600b549081150290604051600060405180830381858888f19350505050158015611757573d6000803e3d6000fd5b50600d600083815260200190815260200160002060010160009054906101000a900473ffffffffffffffffffffffffffffffffffffffff1673ffffffffffffffffffffffffffffffffffffffff166108fc349081150290604051600060405180830381858888f193505050501580156117d4573d6000803e3d6000fd5b505050565b60606117e482611bee565b6000600660008481526020019081526020016000208054611804906137cb565b80601f0160208091040260200160405190810160405280929190818152602001828054611830906137cb565b801561187d5780601f106118525761010080835404028352916020019161187d565b820191906000526020600020905b81548152906001019060200180831161186057829003601f168201915b50505050509050600061188e612748565b905060008151036118a35781925050506118e6565b6000825111156118d85780826040516020016118c0929190613e52565b604051602081830303815290604052925050506118e6565b6118e18461275f565b925050505b919050565b3373ffffffffffffffffffffffffffffffffffffffff16600d600084815260200190815260200160002060020160009054906101000a900473ffffffffffffffffffffffffffffffffffffffff1673ffffffffffffffffffffffffffffffffffffffff161461198f576040517f08c379a000000000000000000000000000000000000000000000000000000000815260040161198690613ee8565b60405180910390fd5b600b5434146119d3576040517f08c379a00000000000000000000000000000000000000000000000000000000081526004016119ca90613f7a565b60405180910390fd5b6000600d600084815260200190815260200160002060040160006101000a81548160ff02191690831515021790555080600d60008481526020019081526020016000206003018190555033600d600084815260200190815260200160002060010160006101000a81548173ffffffffffffffffffffffffffffffffffffffff021916908373ffffffffffffffffffffffffffffffffffffffff16021790555030600d600084815260200190815260200160002060020160006101000a81548173ffffffffffffffffffffffffffffffffffffffff021916908373ffffffffffffffffffffffffffffffffffffffff160217905550611ad1600a6127c7565b611adc333084611d9d565b5050565b6000600560008473ffffffffffffffffffffffffffffffffffffffff1673ffffffffffffffffffffffffffffffffffffffff16815260200190815260200160002060008373ffffffffffffffffffffffffffffffffffffffff1673ffffffffffffffffffffffffffffffffffffffff16815260200190815260200160002060009054906101000a900460ff16905092915050565b60007f2a55205a000000000000000000000000000000000000000000000000000000007bffffffffffffffffffffffffffffffffffffffffffffffffffffffff1916827bffffffffffffffffffffffffffffffffffffffffffffffffffffffff19161480611be75750611be682612823565b5b9050919050565b611bf781612905565b611c36576040517f08c379a0000000000000000000000000000000000000000000000000000000008152600401611c2d90613bae565b60405180910390fd5b50565b600033905090565b816004600083815260200190815260200160002060006101000a81548173ffffffffffffffffffffffffffffffffffffffff021916908373ffffffffffffffffffffffffffffffffffffffff160217905550808273ffffffffffffffffffffffffffffffffffffffff16611cb4836111ee565b73ffffffffffffffffffffffffffffffffffffffff167f8c5be1e5ebec7d5bd14f71427d1e84f3dd0314c0f7b2291e5b200ac8c7c3b92560405160405180910390a45050565b600081600001549050919050565b600080611d14836111ee565b90508073ffffffffffffffffffffffffffffffffffffffff168473ffffffffffffffffffffffffffffffffffffffff161480611d565750611d558185611ae0565b5b80611d9457508373ffffffffffffffffffffffffffffffffffffffff16611d7c846105dd565b73ffffffffffffffffffffffffffffffffffffffff16145b91505092915050565b8273ffffffffffffffffffffffffffffffffffffffff16611dbd826111ee565b73ffffffffffffffffffffffffffffffffffffffff1614611e13576040517f08c379a0000000000000000000000000000000000000000000000000000000008152600401611e0a9061400c565b60405180910390fd5b600073ffffffffffffffffffffffffffffffffffffffff168273ffffffffffffffffffffffffffffffffffffffff1603611e82576040517f08c379a0000000000000000000000000000000000000000000000000000000008152600401611e799061409e565b60405180910390fd5b611e8f8383836001612946565b8273ffffffffffffffffffffffffffffffffffffffff16611eaf826111ee565b73ffffffffffffffffffffffffffffffffffffffff1614611f05576040517f08c379a0000000000000000000000000000000000000000000000000000000008152600401611efc9061400c565b60405180910390fd5b6004600082815260200190815260200160002060006101000a81549073ffffffffffffffffffffffffffffffffffffffff02191690556001600360008573ffffffffffffffffffffffffffffffffffffffff1673ffffffffffffffffffffffffffffffffffffffff168152602001908152602001600020600082825403925050819055506001600360008473ffffffffffffffffffffffffffffffffffffffff1673ffffffffffffffffffffffffffffffffffffffff16815260200190815260200160002060008282540192505081905550816002600083815260200190815260200160002060006101000a81548173ffffffffffffffffffffffffffffffffffffffff021916908373ffffffffffffffffffffffffffffffffffffffff160217905550808273ffffffffffffffffffffffffffffffffffffffff168473ffffffffffffffffffffffffffffffffffffffff167fddf252ad1be2c89b69c2b068fc378daa952ba7f163c4a11628f55a4df523b3ef60405160405180910390a46120918383836001612a6c565b505050565b6000612710905090565b60006002600083815260200190815260200160002060009054906101000a900473ffffffffffffffffffffffffffffffffffffffff169050919050565b6001816000016000828254019250508190555050565b600073ffffffffffffffffffffffffffffffffffffffff168273ffffffffffffffffffffffffffffffffffffffff1603612162576040517f08c379a00000000000000000000000000000000000000000000000000000000081526004016121599061410a565b60405180910390fd5b61216b81612905565b156121ab576040517f08c379a00000000000000000000000000000000000000000000000000000000081526004016121a290614176565b60405180910390fd5b6121b9600083836001612946565b6121c281612905565b15612202576040517f08c379a00000000000000000000000000000000000000000000000000000000081526004016121f990614176565b60405180910390fd5b6001600360008473ffffffffffffffffffffffffffffffffffffffff1673ffffffffffffffffffffffffffffffffffffffff16815260200190815260200160002060008282540192505081905550816002600083815260200190815260200160002060006101000a81548173ffffffffffffffffffffffffffffffffffffffff021916908373ffffffffffffffffffffffffffffffffffffffff160217905550808273ffffffffffffffffffffffffffffffffffffffff16600073ffffffffffffffffffffffffffffffffffffffff167fddf252ad1be2c89b69c2b068fc378daa952ba7f163c4a11628f55a4df523b3ef60405160405180910390a461230c600083836001612a6c565b5050565b61231982612905565b612358576040517f08c379a000000000000000000000000000000000000000000000000000000000815260040161234f90614208565b60405180910390fd5b8060066000848152602001908152602001600020908161237891906143d4565b505050565b600081116123c0576040517f08c379a00000000000000000000000000000000000000000000000000000000081526004016123b7906144f2565b60405180910390fd5b600b543414612404576040517f08c379a00000000000000000000000000000000000000000000000000000000081526004016123fb90613f7a565b60405180910390fd5b6040518060a001604052808381526020013373ffffffffffffffffffffffffffffffffffffffff1681526020013073ffffffffffffffffffffffffffffffffffffffff16815260200182815260200160001515815250600d60008481526020019081526020016000206000820151816000015560208201518160010160006101000a81548173ffffffffffffffffffffffffffffffffffffffff021916908373ffffffffffffffffffffffffffffffffffffffff16021790555060408201518160020160006101000a81548173ffffffffffffffffffffffffffffffffffffffff021916908373ffffffffffffffffffffffffffffffffffffffff1602179055506060820151816003015560808201518160040160006101000a81548160ff02191690831515021790555090505061253d333084611d9d565b817fb640004f1d14576d0c209e240cad0410e0d8c0c33a09375861fbadae2588a98d33308460006040516125749493929190614512565b60405180910390a25050565b8173ffffffffffffffffffffffffffffffffffffffff168373ffffffffffffffffffffffffffffffffffffffff16036125ee576040517f08c379a00000000000000000000000000000000000000000000000000000000081526004016125e5906145a3565b60405180910390fd5b80600560008573ffffffffffffffffffffffffffffffffffffffff1673ffffffffffffffffffffffffffffffffffffffff16815260200190815260200160002060008473ffffffffffffffffffffffffffffffffffffffff1673ffffffffffffffffffffffffffffffffffffffff16815260200190815260200160002060006101000a81548160ff0219169083151502179055508173ffffffffffffffffffffffffffffffffffffffff168373ffffffffffffffffffffffffffffffffffffffff167f17307eab39ab6107e8899845ad3d59bd9653f200f220920489ca2b5937696c31836040516126df9190612fb8565b60405180910390a3505050565b6126f7848484611d9d565b61270384848484612a72565b612742576040517f08c379a000000000000000000000000000000000000000000000000000000000815260040161273990614635565b60405180910390fd5b50505050565b606060405180602001604052806000815250905090565b606061276a82611bee565b6000612774612748565b9050600081511161279457604051806020016040528060008152506127bf565b8061279e84612bf9565b6040516020016127af929190613e52565b6040516020818303038152906040525b915050919050565b60008160000154905060008111612813576040517f08c379a000000000000000000000000000000000000000000000000000000000815260040161280a906146a1565b60405180910390fd5b6001810382600001819055505050565b60007f80ac58cd000000000000000000000000000000000000000000000000000000007bffffffffffffffffffffffffffffffffffffffffffffffffffffffff1916827bffffffffffffffffffffffffffffffffffffffffffffffffffffffff191614806128ee57507f5b5e139f000000000000000000000000000000000000000000000000000000007bffffffffffffffffffffffffffffffffffffffffffffffffffffffff1916827bffffffffffffffffffffffffffffffffffffffffffffffffffffffff1916145b806128fe57506128fd82612cc7565b5b9050919050565b60008073ffffffffffffffffffffffffffffffffffffffff16612927836120a0565b73ffffffffffffffffffffffffffffffffffffffff1614159050919050565b6001811115612a6657600073ffffffffffffffffffffffffffffffffffffffff168473ffffffffffffffffffffffffffffffffffffffff16146129da5780600360008673ffffffffffffffffffffffffffffffffffffffff1673ffffffffffffffffffffffffffffffffffffffff16815260200190815260200160002060008282546129d2919061394f565b925050819055505b600073ffffffffffffffffffffffffffffffffffffffff168373ffffffffffffffffffffffffffffffffffffffff1614612a655780600360008573ffffffffffffffffffffffffffffffffffffffff1673ffffffffffffffffffffffffffffffffffffffff1681526020019081526020016000206000828254612a5d9190613983565b925050819055505b5b50505050565b50505050565b6000612a938473ffffffffffffffffffffffffffffffffffffffff16612d31565b15612bec578373ffffffffffffffffffffffffffffffffffffffff1663150b7a02612abc611c39565b8786866040518563ffffffff1660e01b8152600401612ade9493929190614716565b6020604051808303816000875af1925050508015612b1a57506040513d601f19601f82011682018060405250810190612b179190614777565b60015b612b9c573d8060008114612b4a576040519150601f19603f3d011682016040523d82523d6000602084013e612b4f565b606091505b506000815103612b94576040517f08c379a0000000000000000000000000000000000000000000000000000000008152600401612b8b90614635565b60405180910390fd5b805181602001fd5b63150b7a0260e01b7bffffffffffffffffffffffffffffffffffffffffffffffffffffffff1916817bffffffffffffffffffffffffffffffffffffffffffffffffffffffff191614915050612bf1565b600190505b949350505050565b606060006001612c0884612d54565b01905060008167ffffffffffffffff811115612c2757612c26613445565b5b6040519080825280601f01601f191660200182016040528015612c595781602001600182028036833780820191505090505b509050600082602001820190505b600115612cbc578080600190039150507f3031323334353637383961626364656600000000000000000000000000000000600a86061a8153600a8581612cb057612caf613b02565b5b04945060008503612c67575b819350505050919050565b60007f01ffc9a7000000000000000000000000000000000000000000000000000000007bffffffffffffffffffffffffffffffffffffffffffffffffffffffff1916827bffffffffffffffffffffffffffffffffffffffffffffffffffffffff1916149050919050565b6000808273ffffffffffffffffffffffffffffffffffffffff163b119050919050565b600080600090507a184f03e93ff9f4daa797ed6e38ed64bf6a1f0100000000000000008310612db2577a184f03e93ff9f4daa797ed6e38ed64bf6a1f0100000000000000008381612da857612da7613b02565b5b0492506040810190505b6d04ee2d6d415b85acef81000000008310612def576d04ee2d6d415b85acef81000000008381612de557612de4613b02565b5b0492506020810190505b662386f26fc100008310612e1e57662386f26fc100008381612e1457612e13613b02565b5b0492506010810190505b6305f5e1008310612e47576305f5e1008381612e3d57612e3c613b02565b5b0492506008810190505b6127108310612e6c576127108381612e6257612e61613b02565b5b0492506004810190505b60648310612e8f5760648381612e8557612e84613b02565b5b0492506002810190505b600a8310612e9e576001810190505b80915050919050565b6040518060a0016040528060008152602001600073ffffffffffffffffffffffffffffffffffffffff168152602001600073ffffffffffffffffffffffffffffffffffffffff168152602001600081526020016000151581525090565b6000604051905090565b600080fd5b600080fd5b60007fffffffff0000000000000000000000000000000000000000000000000000000082169050919050565b612f4d81612f18565b8114612f5857600080fd5b50565b600081359050612f6a81612f44565b92915050565b600060208284031215612f8657612f85612f0e565b5b6000612f9484828501612f5b565b91505092915050565b60008115159050919050565b612fb281612f9d565b82525050565b6000602082019050612fcd6000830184612fa9565b92915050565b600081519050919050565b600082825260208201905092915050565b60005b8381101561300d578082015181840152602081019050612ff2565b60008484015250505050565b6000601f19601f8301169050919050565b600061303582612fd3565b61303f8185612fde565b935061304f818560208601612fef565b61305881613019565b840191505092915050565b6000602082019050818103600083015261307d818461302a565b905092915050565b6000819050919050565b61309881613085565b81146130a357600080fd5b50565b6000813590506130b58161308f565b92915050565b6000602082840312156130d1576130d0612f0e565b5b60006130df848285016130a6565b91505092915050565b600073ffffffffffffffffffffffffffffffffffffffff82169050919050565b6000613113826130e8565b9050919050565b61312381613108565b82525050565b600060208201905061313e600083018461311a565b92915050565b61314d81613108565b811461315857600080fd5b50565b60008135905061316a81613144565b92915050565b6000806040838503121561318757613186612f0e565b5b60006131958582860161315b565b92505060206131a6858286016130a6565b9150509250929050565b600081519050919050565b600082825260208201905092915050565b6000819050602082019050919050565b6131e581613085565b82525050565b60006131f6826130e8565b9050919050565b613206816131eb565b82525050565b61321581612f9d565b82525050565b60a08201600082015161323160008501826131dc565b50602082015161324460208501826131fd565b50604082015161325760408501826131fd565b50606082015161326a60608501826131dc565b50608082015161327d608085018261320c565b50505050565b600061328f838361321b565b60a08301905092915050565b6000602082019050919050565b60006132b3826131b0565b6132bd81856131bb565b93506132c8836131cc565b8060005b838110156132f95781516132e08882613283565b97506132eb8361329b565b9250506001810190506132cc565b5085935050505092915050565b6000602082019050818103600083015261332081846132a8565b905092915050565b61333181613085565b82525050565b600060208201905061334c6000830184613328565b92915050565b60008060006060848603121561336b5761336a612f0e565b5b60006133798682870161315b565b935050602061338a8682870161315b565b925050604061339b868287016130a6565b9150509250925092565b600080604083850312156133bc576133bb612f0e565b5b60006133ca858286016130a6565b92505060206133db858286016130a6565b9150509250929050565b60006040820190506133fa600083018561311a565b6134076020830184613328565b9392505050565b60006020828403121561342457613423612f0e565b5b60006134328482850161315b565b91505092915050565b600080fd5b600080fd5b7f4e487b7100000000000000000000000000000000000000000000000000000000600052604160045260246000fd5b61347d82613019565b810181811067ffffffffffffffff8211171561349c5761349b613445565b5b80604052505050565b60006134af612f04565b90506134bb8282613474565b919050565b600067ffffffffffffffff8211156134db576134da613445565b5b6134e482613019565b9050602081019050919050565b82818337600083830152505050565b600061351361350e846134c0565b6134a5565b90508281526020810184848401111561352f5761352e613440565b5b61353a8482856134f1565b509392505050565b600082601f8301126135575761355661343b565b5b8135613567848260208601613500565b91505092915050565b6000806040838503121561358757613586612f0e565b5b600083013567ffffffffffffffff8111156135a5576135a4612f13565b5b6135b185828601613542565b92505060206135c2858286016130a6565b9150509250929050565b6135d581612f9d565b81146135e057600080fd5b50565b6000813590506135f2816135cc565b92915050565b6000806040838503121561360f5761360e612f0e565b5b600061361d8582860161315b565b925050602061362e858286016135e3565b9150509250929050565b600067ffffffffffffffff82111561365357613652613445565b5b61365c82613019565b9050602081019050919050565b600061367c61367784613638565b6134a5565b90508281526020810184848401111561369857613697613440565b5b6136a38482856134f1565b509392505050565b600082601f8301126136c0576136bf61343b565b5b81356136d0848260208601613669565b91505092915050565b600080600080608085870312156136f3576136f2612f0e565b5b60006137018782880161315b565b94505060206137128782880161315b565b9350506040613723878288016130a6565b925050606085013567ffffffffffffffff81111561374457613743612f13565b5b613750878288016136ab565b91505092959194509250565b6000806040838503121561377357613772612f0e565b5b60006137818582860161315b565b92505060206137928582860161315b565b9150509250929050565b7f4e487b7100000000000000000000000000000000000000000000000000000000600052602260045260246000fd5b600060028204905060018216806137e357607f821691505b6020821081036137f6576137f561379c565b5b50919050565b7f4552433732313a20617070726f76616c20746f2063757272656e74206f776e6560008201527f7200000000000000000000000000000000000000000000000000000000000000602082015250565b6000613858602183612fde565b9150613863826137fc565b604082019050919050565b600060208201905081810360008301526138878161384b565b9050919050565b7f4552433732313a20617070726f76652063616c6c6572206973206e6f7420746f60008201527f6b656e206f776e6572206f7220617070726f76656420666f7220616c6c000000602082015250565b60006138ea603d83612fde565b91506138f58261388e565b604082019050919050565b60006020820190508181036000830152613919816138dd565b9050919050565b7f4e487b7100000000000000000000000000000000000000000000000000000000600052601160045260246000fd5b600061395a82613085565b915061396583613085565b925082820390508181111561397d5761397c613920565b5b92915050565b600061398e82613085565b915061399983613085565b92508282019050808211156139b1576139b0613920565b5b92915050565b7f4e487b7100000000000000000000000000000000000000000000000000000000600052603260045260246000fd5b60006139f182613085565b91507fffffffffffffffffffffffffffffffffffffffffffffffffffffffffffffffff8203613a2357613a22613920565b5b600182019050919050565b7f4552433732313a2063616c6c6572206973206e6f7420746f6b656e206f776e6560008201527f72206f7220617070726f76656400000000000000000000000000000000000000602082015250565b6000613a8a602d83612fde565b9150613a9582613a2e565b604082019050919050565b60006020820190508181036000830152613ab981613a7d565b9050919050565b6000613acb82613085565b9150613ad683613085565b9250828202613ae481613085565b91508282048414831517613afb57613afa613920565b5b5092915050565b7f4e487b7100000000000000000000000000000000000000000000000000000000600052601260045260246000fd5b6000613b3c82613085565b9150613b4783613085565b925082613b5757613b56613b02565b5b828204905092915050565b7f4552433732313a20696e76616c696420746f6b656e2049440000000000000000600082015250565b6000613b98601883612fde565b9150613ba382613b62565b602082019050919050565b60006020820190508181036000830152613bc781613b8b565b9050919050565b7f4552433732313a2061646472657373207a65726f206973206e6f74206120766160008201527f6c6964206f776e65720000000000000000000000000000000000000000000000602082015250565b6000613c2a602983612fde565b9150613c3582613bce565b604082019050919050565b60006020820190508181036000830152613c5981613c1d565b9050919050565b7f4f6e6c79206f776e6572206f6620746865206d61726b6574706c61636520636160008201527f6e206368616e676520746865206c697374696e67207072696365000000000000602082015250565b6000613cbc603a83612fde565b9150613cc782613c60565b604082019050919050565b60006020820190508181036000830152613ceb81613caf565b9050919050565b7f4f6e6c79206d61726b6574706c616365206f776e65722063616e20757064617460008201527f65206c697374696e672070726963652e00000000000000000000000000000000602082015250565b6000613d4e603083612fde565b9150613d5982613cf2565b604082019050919050565b60006020820190508181036000830152613d7d81613d41565b9050919050565b7f506c65617365207375626d6974207468652061736b696e67207072696365206960008201527f6e206f7264657220746f20636f6d706c65746520746865207075726368617365602082015250565b6000613de0604083612fde565b9150613deb82613d84565b604082019050919050565b60006020820190508181036000830152613e0f81613dd3565b9050919050565b600081905092915050565b6000613e2c82612fd3565b613e368185613e16565b9350613e46818560208601612fef565b80840191505092915050565b6000613e5e8285613e21565b9150613e6a8284613e21565b91508190509392505050565b7f4f6e6c79206974656d206f776e65722063616e20706572666f726d207468697360008201527f206f7065726174696f6e00000000000000000000000000000000000000000000602082015250565b6000613ed2602a83612fde565b9150613edd82613e76565b604082019050919050565b60006020820190508181036000830152613f0181613ec5565b9050919050565b7f5072696365206d75737420626520657175616c20746f206c697374696e67207060008201527f7269636500000000000000000000000000000000000000000000000000000000602082015250565b6000613f64602483612fde565b9150613f6f82613f08565b604082019050919050565b60006020820190508181036000830152613f9381613f57565b9050919050565b7f4552433732313a207472616e736665722066726f6d20696e636f72726563742060008201527f6f776e6572000000000000000000000000000000000000000000000000000000602082015250565b6000613ff6602583612fde565b915061400182613f9a565b604082019050919050565b6000602082019050818103600083015261402581613fe9565b9050919050565b7f4552433732313a207472616e7366657220746f20746865207a65726f2061646460008201527f7265737300000000000000000000000000000000000000000000000000000000602082015250565b6000614088602483612fde565b91506140938261402c565b604082019050919050565b600060208201905081810360008301526140b78161407b565b9050919050565b7f4552433732313a206d696e7420746f20746865207a65726f2061646472657373600082015250565b60006140f4602083612fde565b91506140ff826140be565b602082019050919050565b60006020820190508181036000830152614123816140e7565b9050919050565b7f4552433732313a20746f6b656e20616c7265616479206d696e74656400000000600082015250565b6000614160601c83612fde565b915061416b8261412a565b602082019050919050565b6000602082019050818103600083015261418f81614153565b9050919050565b7f45524337323155524953746f726167653a2055524920736574206f66206e6f6e60008201527f6578697374656e7420746f6b656e000000000000000000000000000000000000602082015250565b60006141f2602e83612fde565b91506141fd82614196565b604082019050919050565b60006020820190508181036000830152614221816141e5565b9050919050565b60008190508160005260206000209050919050565b60006020601f8301049050919050565b600082821b905092915050565b60006008830261428a7fffffffffffffffffffffffffffffffffffffffffffffffffffffffffffffffff8261424d565b614294868361424d565b95508019841693508086168417925050509392505050565b6000819050919050565b60006142d16142cc6142c784613085565b6142ac565b613085565b9050919050565b6000819050919050565b6142eb836142b6565b6142ff6142f7826142d8565b84845461425a565b825550505050565b600090565b614314614307565b61431f8184846142e2565b505050565b5b818110156143435761433860008261430c565b600181019050614325565b5050565b601f8211156143885761435981614228565b6143628461423d565b81016020851015614371578190505b61438561437d8561423d565b830182614324565b50505b505050565b600082821c905092915050565b60006143ab6000198460080261438d565b1980831691505092915050565b60006143c4838361439a565b9150826002028217905092915050565b6143dd82612fd3565b67ffffffffffffffff8111156143f6576143f5613445565b5b61440082546137cb565b61440b828285614347565b600060209050601f83116001811461443e576000841561442c578287015190505b61443685826143b8565b86555061449e565b601f19841661444c86614228565b60005b828110156144745784890151825560018201915060208501945060208101905061444f565b86831015614491578489015161448d601f89168261439a565b8355505b6001600288020188555050505b505050505050565b7f5072696365206d757374206265206174206c6561737420312077656900000000600082015250565b60006144dc601c83612fde565b91506144e7826144a6565b602082019050919050565b6000602082019050818103600083015261450b816144cf565b9050919050565b6000608082019050614527600083018761311a565b614534602083018661311a565b6145416040830185613328565b61454e6060830184612fa9565b95945050505050565b7f4552433732313a20617070726f766520746f2063616c6c657200000000000000600082015250565b600061458d601983612fde565b915061459882614557565b602082019050919050565b600060208201905081810360008301526145bc81614580565b9050919050565b7f4552433732313a207472616e7366657220746f206e6f6e20455243373231526560008201527f63656976657220696d706c656d656e7465720000000000000000000000000000602082015250565b600061461f603283612fde565b915061462a826145c3565b604082019050919050565b6000602082019050818103600083015261464e81614612565b9050919050565b7f436f756e7465723a2064656372656d656e74206f766572666c6f770000000000600082015250565b600061468b601b83612fde565b915061469682614655565b602082019050919050565b600060208201905081810360008301526146ba8161467e565b9050919050565b600081519050919050565b600082825260208201905092915050565b60006146e8826146c1565b6146f281856146cc565b9350614702818560208601612fef565b61470b81613019565b840191505092915050565b600060808201905061472b600083018761311a565b614738602083018661311a565b6147456040830185613328565b818103606083015261475781846146dd565b905095945050505050565b60008151905061477181612f44565b92915050565b60006020828403121561478d5761478c612f0e565b5b600061479b84828501614762565b9150509291505056fea26469706673582212203d340d6b3467f6cd663f917392e899262be46cd1e3eb2a7852ec5277eb8cbc6d64736f6c63430008110033",
  "linkReferences": {},
  "deployedLinkReferences": {}
}