{
  "_format": "hh-sol-artifact-1",
  "contractName": "NFTMarketplace",
  "sourceName": "contracts/NFTMarketplace.sol",
  "abi": [
    {
      "inputs": [],
      "stateMutability": "nonpayable",
      "type": "constructor"
    },
    {
      "anonymous": false,
      "inputs": [
        {
          "indexed": true,
          "internalType": "address",
          "name": "owner",
          "type": "address"
        },
        {
          "indexed": true,
          "internalType": "address",
          "name": "approved",
          "type": "address"
        },
        {
          "indexed": true,
          "internalType": "uint256",
          "name": "tokenId",
          "type": "uint256"
        }
      ],
      "name": "Approval",
      "type": "event"
    },
    {
      "anonymous": false,
      "inputs": [
        {
          "indexed": true,
          "internalType": "address",
          "name": "owner",
          "type": "address"
        },
        {
          "indexed": true,
          "internalType": "address",
          "name": "operator",
          "type": "address"
        },
        {
          "indexed": false,
          "internalType": "bool",
          "name": "approved",
          "type": "bool"
        }
      ],
      "name": "ApprovalForAll",
      "type": "event"
    },
    {
      "anonymous": false,
      "inputs": [
        {
          "indexed": true,
          "internalType": "uint256",
          "name": "tokenId",
          "type": "uint256"
        },
        {
          "indexed": false,
          "internalType": "address",
          "name": "seller",
          "type": "address"
        },
        {
          "indexed": false,
          "internalType": "address",
          "name": "owner",
          "type": "address"
        },
        {
          "indexed": false,
          "internalType": "uint256",
          "name": "price",
          "type": "uint256"
        },
        {
          "indexed": false,
          "internalType": "bool",
          "name": "sold",
          "type": "bool"
        }
      ],
      "name": "MarketItemCreated",
      "type": "event"
    },
    {
      "anonymous": false,
      "inputs": [
        {
          "indexed": true,
          "internalType": "address",
          "name": "from",
          "type": "address"
        },
        {
          "indexed": true,
          "internalType": "address",
          "name": "to",
          "type": "address"
        },
        {
          "indexed": true,
          "internalType": "uint256",
          "name": "tokenId",
          "type": "uint256"
        }
      ],
      "name": "Transfer",
      "type": "event"
    },
    {
      "inputs": [
        {
          "internalType": "address",
          "name": "to",
          "type": "address"
        },
        {
          "internalType": "uint256",
          "name": "tokenId",
          "type": "uint256"
        }
      ],
      "name": "approve",
      "outputs": [],
      "stateMutability": "nonpayable",
      "type": "function"
    },
    {
      "inputs": [
        {
          "internalType": "address",
          "name": "owner",
          "type": "address"
        }
      ],
      "name": "balanceOf",
      "outputs": [
        {
          "internalType": "uint256",
          "name": "",
          "type": "uint256"
        }
      ],
      "stateMutability": "view",
      "type": "function"
    },
    {
      "inputs": [
        {
          "internalType": "uint256",
          "name": "tokenId",
          "type": "uint256"
        }
      ],
      "name": "createMarketSale",
      "outputs": [],
      "stateMutability": "payable",
      "type": "function"
    },
    {
      "inputs": [
        {
          "internalType": "string",
          "name": "tokenURI",
          "type": "string"
        },
        {
          "internalType": "uint256",
          "name": "price",
          "type": "uint256"
        },
        {
          "internalType": "uint256",
          "name": "_feePercent",
          "type": "uint256"
        }
      ],
      "name": "createToken",
      "outputs": [
        {
          "internalType": "uint256",
          "name": "",
          "type": "uint256"
        }
      ],
      "stateMutability": "payable",
      "type": "function"
    },
    {
      "inputs": [],
      "name": "fetchItemsListed",
      "outputs": [
        {
          "components": [
            {
              "internalType": "uint256",
              "name": "tokenId",
              "type": "uint256"
            },
            {
              "internalType": "address payable",
              "name": "seller",
              "type": "address"
            },
            {
              "internalType": "address payable",
              "name": "owner",
              "type": "address"
            },
            {
              "internalType": "uint256",
              "name": "price",
              "type": "uint256"
            },
            {
              "internalType": "bool",
              "name": "sold",
              "type": "bool"
            }
          ],
          "internalType": "struct NFTMarketplace.MarketItem[]",
          "name": "",
          "type": "tuple[]"
        }
      ],
      "stateMutability": "view",
      "type": "function"
    },
    {
      "inputs": [],
      "name": "fetchMarketItems",
      "outputs": [
        {
          "components": [
            {
              "internalType": "uint256",
              "name": "tokenId",
              "type": "uint256"
            },
            {
              "internalType": "address payable",
              "name": "seller",
              "type": "address"
            },
            {
              "internalType": "address payable",
              "name": "owner",
              "type": "address"
            },
            {
              "internalType": "uint256",
              "name": "price",
              "type": "uint256"
            },
            {
              "internalType": "bool",
              "name": "sold",
              "type": "bool"
            }
          ],
          "internalType": "struct NFTMarketplace.MarketItem[]",
          "name": "",
          "type": "tuple[]"
        }
      ],
      "stateMutability": "view",
      "type": "function"
    },
    {
      "inputs": [],
      "name": "fetchMyNFTs",
      "outputs": [
        {
          "components": [
            {
              "internalType": "uint256",
              "name": "tokenId",
              "type": "uint256"
            },
            {
              "internalType": "address payable",
              "name": "seller",
              "type": "address"
            },
            {
              "internalType": "address payable",
              "name": "owner",
              "type": "address"
            },
            {
              "internalType": "uint256",
              "name": "price",
              "type": "uint256"
            },
            {
              "internalType": "bool",
              "name": "sold",
              "type": "bool"
            }
          ],
          "internalType": "struct NFTMarketplace.MarketItem[]",
          "name": "",
          "type": "tuple[]"
        }
      ],
      "stateMutability": "view",
      "type": "function"
    },
    {
      "inputs": [
        {
          "internalType": "uint256",
          "name": "tokenId",
          "type": "uint256"
        }
      ],
      "name": "getApproved",
      "outputs": [
        {
          "internalType": "address",
          "name": "",
          "type": "address"
        }
      ],
      "stateMutability": "view",
      "type": "function"
    },
    {
      "inputs": [],
      "name": "getListingPrice",
      "outputs": [
        {
          "internalType": "uint256",
          "name": "",
          "type": "uint256"
        }
      ],
      "stateMutability": "view",
      "type": "function"
    },
    {
      "inputs": [
        {
          "internalType": "address",
          "name": "owner",
          "type": "address"
        },
        {
          "internalType": "address",
          "name": "operator",
          "type": "address"
        }
      ],
      "name": "isApprovedForAll",
      "outputs": [
        {
          "internalType": "bool",
          "name": "",
          "type": "bool"
        }
      ],
      "stateMutability": "view",
      "type": "function"
    },
    {
      "inputs": [],
      "name": "name",
      "outputs": [
        {
          "internalType": "string",
          "name": "",
          "type": "string"
        }
      ],
      "stateMutability": "view",
      "type": "function"
    },
    {
      "inputs": [
        {
          "internalType": "uint256",
          "name": "tokenId",
          "type": "uint256"
        }
      ],
      "name": "ownerOf",
      "outputs": [
        {
          "internalType": "address",
          "name": "",
          "type": "address"
        }
      ],
      "stateMutability": "view",
      "type": "function"
    },
    {
      "inputs": [
        {
          "internalType": "uint256",
          "name": "tokenId",
          "type": "uint256"
        },
        {
          "internalType": "uint256",
          "name": "price",
          "type": "uint256"
        }
      ],
      "name": "resellToken",
      "outputs": [],
      "stateMutability": "payable",
      "type": "function"
    },
    {
      "inputs": [
        {
          "internalType": "uint256",
          "name": "",
          "type": "uint256"
        }
      ],
      "name": "royalties",
      "outputs": [
        {
          "internalType": "uint256",
          "name": "feePercent",
          "type": "uint256"
        }
      ],
      "stateMutability": "view",
      "type": "function"
    },
    {
      "inputs": [
        {
          "internalType": "uint256",
          "name": "_tokenId",
          "type": "uint256"
        },
        {
          "internalType": "uint256",
          "name": "_salePrice",
          "type": "uint256"
        }
      ],
      "name": "royaltyInfo",
      "outputs": [
        {
          "internalType": "address",
          "name": "",
          "type": "address"
        },
        {
          "internalType": "uint256",
          "name": "",
          "type": "uint256"
        }
      ],
      "stateMutability": "view",
      "type": "function"
    },
    {
      "inputs": [
        {
          "internalType": "address",
          "name": "from",
          "type": "address"
        },
        {
          "internalType": "address",
          "name": "to",
          "type": "address"
        },
        {
          "internalType": "uint256",
          "name": "tokenId",
          "type": "uint256"
        }
      ],
      "name": "safeTransferFrom",
      "outputs": [],
      "stateMutability": "nonpayable",
      "type": "function"
    },
    {
      "inputs": [
        {
          "internalType": "address",
          "name": "from",
          "type": "address"
        },
        {
          "internalType": "address",
          "name": "to",
          "type": "address"
        },
        {
          "internalType": "uint256",
          "name": "tokenId",
          "type": "uint256"
        },
        {
          "internalType": "bytes",
          "name": "data",
          "type": "bytes"
        }
      ],
      "name": "safeTransferFrom",
      "outputs": [],
      "stateMutability": "nonpayable",
      "type": "function"
    },
    {
      "inputs": [
        {
          "internalType": "address",
          "name": "operator",
          "type": "address"
        },
        {
          "internalType": "bool",
          "name": "approved",
          "type": "bool"
        }
      ],
      "name": "setApprovalForAll",
      "outputs": [],
      "stateMutability": "nonpayable",
      "type": "function"
    },
    {
      "inputs": [
        {
          "internalType": "uint256",
          "name": "_newRoyaltyFee",
          "type": "uint256"
        }
      ],
      "name": "setRoyaltyFee",
      "outputs": [],
      "stateMutability": "nonpayable",
      "type": "function"
    },
    {
      "inputs": [
        {
          "internalType": "bytes4",
          "name": "interfaceId",
          "type": "bytes4"
        }
      ],
      "name": "supportsInterface",
      "outputs": [
        {
          "internalType": "bool",
          "name": "",
          "type": "bool"
        }
      ],
      "stateMutability": "view",
      "type": "function"
    },
    {
      "inputs": [],
      "name": "symbol",
      "outputs": [
        {
          "internalType": "string",
          "name": "",
          "type": "string"
        }
      ],
      "stateMutability": "view",
      "type": "function"
    },
    {
      "inputs": [
        {
          "internalType": "uint256",
          "name": "tokenId",
          "type": "uint256"
        }
      ],
      "name": "tokenURI",
      "outputs": [
        {
          "internalType": "string",
          "name": "",
          "type": "string"
        }
      ],
      "stateMutability": "view",
      "type": "function"
    },
    {
      "inputs": [
        {
          "internalType": "address",
          "name": "from",
          "type": "address"
        },
        {
          "internalType": "address",
          "name": "to",
          "type": "address"
        },
        {
          "internalType": "uint256",
          "name": "tokenId",
          "type": "uint256"
        }
      ],
      "name": "transferFrom",
      "outputs": [],
      "stateMutability": "nonpayable",
      "type": "function"
    },
    {
      "inputs": [
        {
          "internalType": "uint256",
          "name": "_listingPrice",
          "type": "uint256"
        }
      ],
      "name": "updateListingPrice",
      "outputs": [],
      "stateMutability": "payable",
      "type": "function"
    }
  ],
  "bytecode": "0x60806040526658d15e17628000600b553480156200001c57600080fd5b506040518060400160405280600a81526020017f4e616e616d65204e4654000000000000000000000000000000000000000000008152506040518060400160405280600381526020017f4e4e4d000000000000000000000000000000000000000000000000000000000081525081600090816200009a919062000530565b508060019081620000ac919062000530565b50505033600d60006101000a81548173ffffffffffffffffffffffffffffffffffffffff021916908373ffffffffffffffffffffffffffffffffffffffff160217905550620001033360646200010960201b60201c565b62000732565b62000119620002ac60201b60201c565b6bffffffffffffffffffffffff16816bffffffffffffffffffffffff1611156200017a576040517f08c379a000000000000000000000000000000000000000000000000000000000815260040162000171906200069e565b60405180910390fd5b600073ffffffffffffffffffffffffffffffffffffffff168273ffffffffffffffffffffffffffffffffffffffff1603620001ec576040517f08c379a0000000000000000000000000000000000000000000000000000000008152600401620001e39062000710565b60405180910390fd5b60405180604001604052808373ffffffffffffffffffffffffffffffffffffffff168152602001826bffffffffffffffffffffffff16815250600760008201518160000160006101000a81548173ffffffffffffffffffffffffffffffffffffffff021916908373ffffffffffffffffffffffffffffffffffffffff16021790555060208201518160000160146101000a8154816bffffffffffffffffffffffff02191690836bffffffffffffffffffffffff1602179055509050505050565b6000612710905090565b600081519050919050565b7f4e487b7100000000000000000000000000000000000000000000000000000000600052604160045260246000fd5b7f4e487b7100000000000000000000000000000000000000000000000000000000600052602260045260246000fd5b600060028204905060018216806200033857607f821691505b6020821081036200034e576200034d620002f0565b5b50919050565b60008190508160005260206000209050919050565b60006020601f8301049050919050565b600082821b905092915050565b600060088302620003b87fffffffffffffffffffffffffffffffffffffffffffffffffffffffffffffffff8262000379565b620003c4868362000379565b95508019841693508086168417925050509392505050565b6000819050919050565b6000819050919050565b6000620004116200040b6200040584620003dc565b620003e6565b620003dc565b9050919050565b6000819050919050565b6200042d83620003f0565b620004456200043c8262000418565b84845462000386565b825550505050565b600090565b6200045c6200044d565b6200046981848462000422565b505050565b5b8181101562000491576200048560008262000452565b6001810190506200046f565b5050565b601f821115620004e057620004aa8162000354565b620004b58462000369565b81016020851015620004c5578190505b620004dd620004d48562000369565b8301826200046e565b50505b505050565b600082821c905092915050565b60006200050560001984600802620004e5565b1980831691505092915050565b6000620005208383620004f2565b9150826002028217905092915050565b6200053b82620002b6565b67ffffffffffffffff811115620005575762000556620002c1565b5b6200056382546200031f565b6200057082828562000495565b600060209050601f831160018114620005a8576000841562000593578287015190505b6200059f858262000512565b8655506200060f565b601f198416620005b88662000354565b60005b82811015620005e257848901518255600182019150602085019450602081019050620005bb565b86831015620006025784890151620005fe601f891682620004f2565b8355505b6001600288020188555050505b505050505050565b600082825260208201905092915050565b7f455243323938313a20726f79616c7479206665652077696c6c2065786365656460008201527f2073616c65507269636500000000000000000000000000000000000000000000602082015250565b600062000686602a8362000617565b9150620006938262000628565b604082019050919050565b60006020820190508181036000830152620006b98162000677565b9050919050565b7f455243323938313a20696e76616c696420726563656976657200000000000000600082015250565b6000620006f860198362000617565b91506200070582620006c0565b602082019050919050565b600060208201905081810360008301526200072b81620006e9565b9050919050565b6148c380620007426000396000f3fe60806040526004361061014b5760003560e01c80636352211e116100b6578063b88d4fde1161006f578063b88d4fde146104aa578063be9af536146104d3578063bec2a7c5146104ef578063c87b56dd1461051f578063e219fc751461055c578063e985e9c5146105785761014b565b80636352211e1461038357806370a08231146103c05780637f77f574146103fd57806395d89b411461043a578063a22cb46514610465578063ae677aa31461048e5761014b565b8063202e374011610108578063202e37401461027457806323b872dd1461029f5780632a55205a146102c85780633e4086e51461030657806342842e0e1461032f57806345f8fa80146103585761014b565b806301ffc9a71461015057806306fdde031461018d578063081812fc146101b8578063095ea7b3146101f55780630f08efe01461021e57806312e8558514610249575b600080fd5b34801561015c57600080fd5b5061017760048036038101906101729190613046565b6105b5565b604051610184919061308e565b60405180910390f35b34801561019957600080fd5b506101a26105c7565b6040516101af9190613139565b60405180910390f35b3480156101c457600080fd5b506101df60048036038101906101da9190613191565b610659565b6040516101ec91906131ff565b60405180910390f35b34801561020157600080fd5b5061021c60048036038101906102179190613246565b61069f565b005b34801561022a57600080fd5b506102336107b6565b60405161024091906133dc565b60405180910390f35b34801561025557600080fd5b5061025e610a1e565b60405161026b919061340d565b60405180910390f35b34801561028057600080fd5b50610289610a28565b60405161029691906133dc565b60405180910390f35b3480156102ab57600080fd5b506102c660048036038101906102c19190613428565b610d14565b005b3480156102d457600080fd5b506102ef60048036038101906102ea919061347b565b610d74565b6040516102fd9291906134bb565b60405180910390f35b34801561031257600080fd5b5061032d60048036038101906103289190613191565b610f5e565b005b34801561033b57600080fd5b5061035660048036038101906103519190613428565b610f68565b005b34801561036457600080fd5b5061036d610f88565b60405161037a91906133dc565b60405180910390f35b34801561038f57600080fd5b506103aa60048036038101906103a59190613191565b611274565b6040516103b791906131ff565b60405180910390f35b3480156103cc57600080fd5b506103e760048036038101906103e291906134e4565b6112fa565b6040516103f4919061340d565b60405180910390f35b34801561040957600080fd5b50610424600480360381019061041f9190613191565b6113b1565b604051610431919061340d565b60405180910390f35b34801561044657600080fd5b5061044f6113cf565b60405161045c9190613139565b60405180910390f35b34801561047157600080fd5b5061048c6004803603810190610487919061353d565b611461565b005b6104a860048036038101906104a39190613191565b611477565b005b3480156104b657600080fd5b506104d160048036038101906104cc91906136b2565b6115a1565b005b6104ed60048036038101906104e89190613191565b611603565b005b610509600480360381019061050491906137d6565b61183b565b604051610516919061340d565b60405180910390f35b34801561052b57600080fd5b5061054660048036038101906105419190613191565b61187f565b6040516105539190613139565b60405180910390f35b6105766004803603810190610571919061347b565b611991565b005b34801561058457600080fd5b5061059f600480360381019061059a9190613845565b611b86565b6040516105ac919061308e565b60405180910390f35b60006105c082611c1a565b9050919050565b6060600080546105d6906138b4565b80601f0160208091040260200160405190810160405280929190818152602001828054610602906138b4565b801561064f5780601f106106245761010080835404028352916020019161064f565b820191906000526020600020905b81548152906001019060200180831161063257829003601f168201915b5050505050905090565b600061066482611c94565b6004600083815260200190815260200160002060009054906101000a900473ffffffffffffffffffffffffffffffffffffffff169050919050565b60006106aa82611274565b90508073ffffffffffffffffffffffffffffffffffffffff168373ffffffffffffffffffffffffffffffffffffffff160361071a576040517f08c379a000000000000000000000000000000000000000000000000000000000815260040161071190613957565b60405180910390fd5b8073ffffffffffffffffffffffffffffffffffffffff16610739611cdf565b73ffffffffffffffffffffffffffffffffffffffff161480610768575061076781610762611cdf565b611b86565b5b6107a7576040517f08c379a000000000000000000000000000000000000000000000000000000000815260040161079e906139e9565b60405180910390fd5b6107b18383611ce7565b505050565b606060006107c46009611da0565b905060006107d2600a611da0565b6107dc6009611da0565b6107e69190613a38565b90506000808267ffffffffffffffff81111561080557610804613587565b5b60405190808252806020026020018201604052801561083e57816020015b61082b612f7d565b8152602001906001900390816108235790505b50905060005b84811015610a13573073ffffffffffffffffffffffffffffffffffffffff16600e60006001846108749190613a6c565b815260200190815260200160002060020160009054906101000a900473ffffffffffffffffffffffffffffffffffffffff1673ffffffffffffffffffffffffffffffffffffffff1603610a005760006001826108d09190613a6c565b90506000600e60008381526020019081526020016000209050806040518060a0016040529081600082015481526020016001820160009054906101000a900473ffffffffffffffffffffffffffffffffffffffff1673ffffffffffffffffffffffffffffffffffffffff1673ffffffffffffffffffffffffffffffffffffffff1681526020016002820160009054906101000a900473ffffffffffffffffffffffffffffffffffffffff1673ffffffffffffffffffffffffffffffffffffffff1673ffffffffffffffffffffffffffffffffffffffff168152602001600382015481526020016004820160009054906101000a900460ff1615151515815250508486815181106109e3576109e2613aa0565b5b60200260200101819052506001856109fb9190613a6c565b945050505b8080610a0b90613acf565b915050610844565b508094505050505090565b6000600b54905090565b60606000610a366009611da0565b905060008060005b83811015610ade573373ffffffffffffffffffffffffffffffffffffffff16600e6000600184610a6e9190613a6c565b815260200190815260200160002060020160009054906101000a900473ffffffffffffffffffffffffffffffffffffffff1673ffffffffffffffffffffffffffffffffffffffff1603610acb57600183610ac89190613a6c565b92505b8080610ad690613acf565b915050610a3e565b5060008267ffffffffffffffff811115610afb57610afa613587565b5b604051908082528060200260200182016040528015610b3457816020015b610b21612f7d565b815260200190600190039081610b195790505b50905060005b84811015610d09573373ffffffffffffffffffffffffffffffffffffffff16600e6000600184610b6a9190613a6c565b815260200190815260200160002060020160009054906101000a900473ffffffffffffffffffffffffffffffffffffffff1673ffffffffffffffffffffffffffffffffffffffff1603610cf6576000600182610bc69190613a6c565b90506000600e60008381526020019081526020016000209050806040518060a0016040529081600082015481526020016001820160009054906101000a900473ffffffffffffffffffffffffffffffffffffffff1673ffffffffffffffffffffffffffffffffffffffff1673ffffffffffffffffffffffffffffffffffffffff1681526020016002820160009054906101000a900473ffffffffffffffffffffffffffffffffffffffff1673ffffffffffffffffffffffffffffffffffffffff1673ffffffffffffffffffffffffffffffffffffffff168152602001600382015481526020016004820160009054906101000a900460ff161515151581525050848681518110610cd957610cd8613aa0565b5b6020026020010181905250600185610cf19190613a6c565b945050505b8080610d0190613acf565b915050610b3a565b508094505050505090565b610d25610d1f611cdf565b82611dae565b610d64576040517f08c379a0000000000000000000000000000000000000000000000000000000008152600401610d5b90613b89565b60405180910390fd5b610d6f838383611e43565b505050565b6000806000600860008681526020019081526020016000206040518060400160405290816000820160009054906101000a900473ffffffffffffffffffffffffffffffffffffffff1673ffffffffffffffffffffffffffffffffffffffff1673ffffffffffffffffffffffffffffffffffffffff1681526020016000820160149054906101000a90046bffffffffffffffffffffffff166bffffffffffffffffffffffff166bffffffffffffffffffffffff16815250509050600073ffffffffffffffffffffffffffffffffffffffff16816000015173ffffffffffffffffffffffffffffffffffffffff1603610f095760076040518060400160405290816000820160009054906101000a900473ffffffffffffffffffffffffffffffffffffffff1673ffffffffffffffffffffffffffffffffffffffff1673ffffffffffffffffffffffffffffffffffffffff1681526020016000820160149054906101000a90046bffffffffffffffffffffffff166bffffffffffffffffffffffff166bffffffffffffffffffffffff168152505090505b6000610f1361213c565b6bffffffffffffffffffffffff1682602001516bffffffffffffffffffffffff1686610f3f9190613ba9565b610f499190613c1a565b90508160000151819350935050509250929050565b80600c8190555050565b610f83838383604051806020016040528060008152506115a1565b505050565b60606000610f966009611da0565b905060008060005b8381101561103e573373ffffffffffffffffffffffffffffffffffffffff16600e6000600184610fce9190613a6c565b815260200190815260200160002060010160009054906101000a900473ffffffffffffffffffffffffffffffffffffffff1673ffffffffffffffffffffffffffffffffffffffff160361102b576001836110289190613a6c565b92505b808061103690613acf565b915050610f9e565b5060008267ffffffffffffffff81111561105b5761105a613587565b5b60405190808252806020026020018201604052801561109457816020015b611081612f7d565b8152602001906001900390816110795790505b50905060005b84811015611269573373ffffffffffffffffffffffffffffffffffffffff16600e60006001846110ca9190613a6c565b815260200190815260200160002060010160009054906101000a900473ffffffffffffffffffffffffffffffffffffffff1673ffffffffffffffffffffffffffffffffffffffff16036112565760006001826111269190613a6c565b90506000600e60008381526020019081526020016000209050806040518060a0016040529081600082015481526020016001820160009054906101000a900473ffffffffffffffffffffffffffffffffffffffff1673ffffffffffffffffffffffffffffffffffffffff1673ffffffffffffffffffffffffffffffffffffffff1681526020016002820160009054906101000a900473ffffffffffffffffffffffffffffffffffffffff1673ffffffffffffffffffffffffffffffffffffffff1673ffffffffffffffffffffffffffffffffffffffff168152602001600382015481526020016004820160009054906101000a900460ff16151515158152505084868151811061123957611238613aa0565b5b60200260200101819052506001856112519190613a6c565b945050505b808061126190613acf565b91505061109a565b508094505050505090565b60008061128083612146565b9050600073ffffffffffffffffffffffffffffffffffffffff168173ffffffffffffffffffffffffffffffffffffffff16036112f1576040517f08c379a00000000000000000000000000000000000000000000000000000000081526004016112e890613c97565b60405180910390fd5b80915050919050565b60008073ffffffffffffffffffffffffffffffffffffffff168273ffffffffffffffffffffffffffffffffffffffff160361136a576040517f08c379a000000000000000000000000000000000000000000000000000000000815260040161136190613d29565b60405180910390fd5b600360008373ffffffffffffffffffffffffffffffffffffffff1673ffffffffffffffffffffffffffffffffffffffff168152602001908152602001600020549050919050565b600f6020528060005260406000206000915090508060000154905081565b6060600180546113de906138b4565b80601f016020809104026020016040519081016040528092919081815260200182805461140a906138b4565b80156114575780601f1061142c57610100808354040283529160200191611457565b820191906000526020600020905b81548152906001019060200180831161143a57829003601f168201915b5050505050905090565b61147361146c611cdf565b8383612183565b5050565b600d60009054906101000a900473ffffffffffffffffffffffffffffffffffffffff1673ffffffffffffffffffffffffffffffffffffffff163373ffffffffffffffffffffffffffffffffffffffff1614611507576040517f08c379a00000000000000000000000000000000000000000000000000000000081526004016114fe90613dbb565b60405180910390fd5b3373ffffffffffffffffffffffffffffffffffffffff16600d60009054906101000a900473ffffffffffffffffffffffffffffffffffffffff1673ffffffffffffffffffffffffffffffffffffffff1614611597576040517f08c379a000000000000000000000000000000000000000000000000000000000815260040161158e90613e4d565b60405180910390fd5b80600b8190555050565b6115b26115ac611cdf565b83611dae565b6115f1576040517f08c379a00000000000000000000000000000000000000000000000000000000081526004016115e890613b89565b60405180910390fd5b6115fd848484846122ef565b50505050565b6000600e6000838152602001908152602001600020600301549050803414611660576040517f08c379a000000000000000000000000000000000000000000000000000000000815260040161165790613edf565b60405180910390fd5b33600e600084815260200190815260200160002060020160006101000a81548173ffffffffffffffffffffffffffffffffffffffff021916908373ffffffffffffffffffffffffffffffffffffffff1602179055506001600e600084815260200190815260200160002060040160006101000a81548160ff0219169083151502179055506000600e600084815260200190815260200160002060010160006101000a81548173ffffffffffffffffffffffffffffffffffffffff021916908373ffffffffffffffffffffffffffffffffffffffff160217905550611744600a61234b565b61174f303384611e43565b600d60009054906101000a900473ffffffffffffffffffffffffffffffffffffffff1673ffffffffffffffffffffffffffffffffffffffff166108fc600b549081150290604051600060405180830381858888f193505050501580156117b9573d6000803e3d6000fd5b50600e600083815260200190815260200160002060010160009054906101000a900473ffffffffffffffffffffffffffffffffffffffff1673ffffffffffffffffffffffffffffffffffffffff166108fc349081150290604051600060405180830381858888f19350505050158015611836573d6000803e3d6000fd5b505050565b6000611847600961234b565b60006118536009611da0565b905061185f3382612361565b611869818661257e565b6118748185856125eb565b809150509392505050565b606061188a82611c94565b60006006600084815260200190815260200160002080546118aa906138b4565b80601f01602080910402602001604051908101604052809291908181526020018280546118d6906138b4565b80156119235780601f106118f857610100808354040283529160200191611923565b820191906000526020600020905b81548152906001019060200180831161190657829003601f168201915b50505050509050600061193461281e565b9050600081510361194957819250505061198c565b60008251111561197e578082604051602001611966929190613f3b565b6040516020818303038152906040529250505061198c565b61198784612835565b925050505b919050565b3373ffffffffffffffffffffffffffffffffffffffff16600e600084815260200190815260200160002060020160009054906101000a900473ffffffffffffffffffffffffffffffffffffffff1673ffffffffffffffffffffffffffffffffffffffff1614611a35576040517f08c379a0000000000000000000000000000000000000000000000000000000008152600401611a2c90613fd1565b60405180910390fd5b600b543414611a79576040517f08c379a0000000000000000000000000000000000000000000000000000000008152600401611a7090614063565b60405180910390fd5b6000600e600084815260200190815260200160002060040160006101000a81548160ff02191690831515021790555080600e60008481526020019081526020016000206003018190555033600e600084815260200190815260200160002060010160006101000a81548173ffffffffffffffffffffffffffffffffffffffff021916908373ffffffffffffffffffffffffffffffffffffffff16021790555030600e600084815260200190815260200160002060020160006101000a81548173ffffffffffffffffffffffffffffffffffffffff021916908373ffffffffffffffffffffffffffffffffffffffff160217905550611b77600a61289d565b611b82333084611e43565b5050565b6000600560008473ffffffffffffffffffffffffffffffffffffffff1673ffffffffffffffffffffffffffffffffffffffff16815260200190815260200160002060008373ffffffffffffffffffffffffffffffffffffffff1673ffffffffffffffffffffffffffffffffffffffff16815260200190815260200160002060009054906101000a900460ff16905092915050565b60007f2a55205a000000000000000000000000000000000000000000000000000000007bffffffffffffffffffffffffffffffffffffffffffffffffffffffff1916827bffffffffffffffffffffffffffffffffffffffffffffffffffffffff19161480611c8d5750611c8c826128f9565b5b9050919050565b611c9d816129db565b611cdc576040517f08c379a0000000000000000000000000000000000000000000000000000000008152600401611cd390613c97565b60405180910390fd5b50565b600033905090565b816004600083815260200190815260200160002060006101000a81548173ffffffffffffffffffffffffffffffffffffffff021916908373ffffffffffffffffffffffffffffffffffffffff160217905550808273ffffffffffffffffffffffffffffffffffffffff16611d5a83611274565b73ffffffffffffffffffffffffffffffffffffffff167f8c5be1e5ebec7d5bd14f71427d1e84f3dd0314c0f7b2291e5b200ac8c7c3b92560405160405180910390a45050565b600081600001549050919050565b600080611dba83611274565b90508073ffffffffffffffffffffffffffffffffffffffff168473ffffffffffffffffffffffffffffffffffffffff161480611dfc5750611dfb8185611b86565b5b80611e3a57508373ffffffffffffffffffffffffffffffffffffffff16611e2284610659565b73ffffffffffffffffffffffffffffffffffffffff16145b91505092915050565b8273ffffffffffffffffffffffffffffffffffffffff16611e6382611274565b73ffffffffffffffffffffffffffffffffffffffff1614611eb9576040517f08c379a0000000000000000000000000000000000000000000000000000000008152600401611eb0906140f5565b60405180910390fd5b600073ffffffffffffffffffffffffffffffffffffffff168273ffffffffffffffffffffffffffffffffffffffff1603611f28576040517f08c379a0000000000000000000000000000000000000000000000000000000008152600401611f1f90614187565b60405180910390fd5b611f358383836001612a1c565b8273ffffffffffffffffffffffffffffffffffffffff16611f5582611274565b73ffffffffffffffffffffffffffffffffffffffff1614611fab576040517f08c379a0000000000000000000000000000000000000000000000000000000008152600401611fa2906140f5565b60405180910390fd5b6004600082815260200190815260200160002060006101000a81549073ffffffffffffffffffffffffffffffffffffffff02191690556001600360008573ffffffffffffffffffffffffffffffffffffffff1673ffffffffffffffffffffffffffffffffffffffff168152602001908152602001600020600082825403925050819055506001600360008473ffffffffffffffffffffffffffffffffffffffff1673ffffffffffffffffffffffffffffffffffffffff16815260200190815260200160002060008282540192505081905550816002600083815260200190815260200160002060006101000a81548173ffffffffffffffffffffffffffffffffffffffff021916908373ffffffffffffffffffffffffffffffffffffffff160217905550808273ffffffffffffffffffffffffffffffffffffffff168473ffffffffffffffffffffffffffffffffffffffff167fddf252ad1be2c89b69c2b068fc378daa952ba7f163c4a11628f55a4df523b3ef60405160405180910390a46121378383836001612b42565b505050565b6000612710905090565b60006002600083815260200190815260200160002060009054906101000a900473ffffffffffffffffffffffffffffffffffffffff169050919050565b8173ffffffffffffffffffffffffffffffffffffffff168373ffffffffffffffffffffffffffffffffffffffff16036121f1576040517f08c379a00000000000000000000000000000000000000000000000000000000081526004016121e8906141f3565b60405180910390fd5b80600560008573ffffffffffffffffffffffffffffffffffffffff1673ffffffffffffffffffffffffffffffffffffffff16815260200190815260200160002060008473ffffffffffffffffffffffffffffffffffffffff1673ffffffffffffffffffffffffffffffffffffffff16815260200190815260200160002060006101000a81548160ff0219169083151502179055508173ffffffffffffffffffffffffffffffffffffffff168373ffffffffffffffffffffffffffffffffffffffff167f17307eab39ab6107e8899845ad3d59bd9653f200f220920489ca2b5937696c31836040516122e2919061308e565b60405180910390a3505050565b6122fa848484611e43565b61230684848484612b48565b612345576040517f08c379a000000000000000000000000000000000000000000000000000000000815260040161233c90614285565b60405180910390fd5b50505050565b6001816000016000828254019250508190555050565b600073ffffffffffffffffffffffffffffffffffffffff168273ffffffffffffffffffffffffffffffffffffffff16036123d0576040517f08c379a00000000000000000000000000000000000000000000000000000000081526004016123c7906142f1565b60405180910390fd5b6123d9816129db565b15612419576040517f08c379a00000000000000000000000000000000000000000000000000000000081526004016124109061435d565b60405180910390fd5b612427600083836001612a1c565b612430816129db565b15612470576040517f08c379a00000000000000000000000000000000000000000000000000000000081526004016124679061435d565b60405180910390fd5b6001600360008473ffffffffffffffffffffffffffffffffffffffff1673ffffffffffffffffffffffffffffffffffffffff16815260200190815260200160002060008282540192505081905550816002600083815260200190815260200160002060006101000a81548173ffffffffffffffffffffffffffffffffffffffff021916908373ffffffffffffffffffffffffffffffffffffffff160217905550808273ffffffffffffffffffffffffffffffffffffffff16600073ffffffffffffffffffffffffffffffffffffffff167fddf252ad1be2c89b69c2b068fc378daa952ba7f163c4a11628f55a4df523b3ef60405160405180910390a461257a600083836001612b42565b5050565b612587826129db565b6125c6576040517f08c379a00000000000000000000000000000000000000000000000000000000081526004016125bd906143ef565b60405180910390fd5b806006600084815260200190815260200160002090816125e691906145bb565b505050565b6000821161262e576040517f08c379a0000000000000000000000000000000000000000000000000000000008152600401612625906146d9565b60405180910390fd5b600b543414612672576040517f08c379a000000000000000000000000000000000000000000000000000000000815260040161266990614063565b60405180910390fd5b6040518060a001604052808481526020013373ffffffffffffffffffffffffffffffffffffffff1681526020013073ffffffffffffffffffffffffffffffffffffffff16815260200183815260200160001515815250600e60008581526020019081526020016000206000820151816000015560208201518160010160006101000a81548173ffffffffffffffffffffffffffffffffffffffff021916908373ffffffffffffffffffffffffffffffffffffffff16021790555060408201518160020160006101000a81548173ffffffffffffffffffffffffffffffffffffffff021916908373ffffffffffffffffffffffffffffffffffffffff1602179055506060820151816003015560808201518160040160006101000a81548160ff0219169083151502179055509050506127ab333085611e43565b604051806020016040528082815250600f600085815260200190815260200160002060008201518160000155905050827fb640004f1d14576d0c209e240cad0410e0d8c0c33a09375861fbadae2588a98d333085600060405161281194939291906146f9565b60405180910390a2505050565b606060405180602001604052806000815250905090565b606061284082611c94565b600061284a61281e565b9050600081511161286a5760405180602001604052806000815250612895565b8061287484612ccf565b604051602001612885929190613f3b565b6040516020818303038152906040525b915050919050565b600081600001549050600081116128e9576040517f08c379a00000000000000000000000000000000000000000000000000000000081526004016128e09061478a565b60405180910390fd5b6001810382600001819055505050565b60007f80ac58cd000000000000000000000000000000000000000000000000000000007bffffffffffffffffffffffffffffffffffffffffffffffffffffffff1916827bffffffffffffffffffffffffffffffffffffffffffffffffffffffff191614806129c457507f5b5e139f000000000000000000000000000000000000000000000000000000007bffffffffffffffffffffffffffffffffffffffffffffffffffffffff1916827bffffffffffffffffffffffffffffffffffffffffffffffffffffffff1916145b806129d457506129d382612d9d565b5b9050919050565b60008073ffffffffffffffffffffffffffffffffffffffff166129fd83612146565b73ffffffffffffffffffffffffffffffffffffffff1614159050919050565b6001811115612b3c57600073ffffffffffffffffffffffffffffffffffffffff168473ffffffffffffffffffffffffffffffffffffffff1614612ab05780600360008673ffffffffffffffffffffffffffffffffffffffff1673ffffffffffffffffffffffffffffffffffffffff1681526020019081526020016000206000828254612aa89190613a38565b925050819055505b600073ffffffffffffffffffffffffffffffffffffffff168373ffffffffffffffffffffffffffffffffffffffff1614612b3b5780600360008573ffffffffffffffffffffffffffffffffffffffff1673ffffffffffffffffffffffffffffffffffffffff1681526020019081526020016000206000828254612b339190613a6c565b925050819055505b5b50505050565b50505050565b6000612b698473ffffffffffffffffffffffffffffffffffffffff16612e07565b15612cc2578373ffffffffffffffffffffffffffffffffffffffff1663150b7a02612b92611cdf565b8786866040518563ffffffff1660e01b8152600401612bb494939291906147ff565b6020604051808303816000875af1925050508015612bf057506040513d601f19601f82011682018060405250810190612bed9190614860565b60015b612c72573d8060008114612c20576040519150601f19603f3d011682016040523d82523d6000602084013e612c25565b606091505b506000815103612c6a576040517f08c379a0000000000000000000000000000000000000000000000000000000008152600401612c6190614285565b60405180910390fd5b805181602001fd5b63150b7a0260e01b7bffffffffffffffffffffffffffffffffffffffffffffffffffffffff1916817bffffffffffffffffffffffffffffffffffffffffffffffffffffffff191614915050612cc7565b600190505b949350505050565b606060006001612cde84612e2a565b01905060008167ffffffffffffffff811115612cfd57612cfc613587565b5b6040519080825280601f01601f191660200182016040528015612d2f5781602001600182028036833780820191505090505b509050600082602001820190505b600115612d92578080600190039150507f3031323334353637383961626364656600000000000000000000000000000000600a86061a8153600a8581612d8657612d85613beb565b5b04945060008503612d3d575b819350505050919050565b60007f01ffc9a7000000000000000000000000000000000000000000000000000000007bffffffffffffffffffffffffffffffffffffffffffffffffffffffff1916827bffffffffffffffffffffffffffffffffffffffffffffffffffffffff1916149050919050565b6000808273ffffffffffffffffffffffffffffffffffffffff163b119050919050565b600080600090507a184f03e93ff9f4daa797ed6e38ed64bf6a1f0100000000000000008310612e88577a184f03e93ff9f4daa797ed6e38ed64bf6a1f0100000000000000008381612e7e57612e7d613beb565b5b0492506040810190505b6d04ee2d6d415b85acef81000000008310612ec5576d04ee2d6d415b85acef81000000008381612ebb57612eba613beb565b5b0492506020810190505b662386f26fc100008310612ef457662386f26fc100008381612eea57612ee9613beb565b5b0492506010810190505b6305f5e1008310612f1d576305f5e1008381612f1357612f12613beb565b5b0492506008810190505b6127108310612f42576127108381612f3857612f37613beb565b5b0492506004810190505b60648310612f655760648381612f5b57612f5a613beb565b5b0492506002810190505b600a8310612f74576001810190505b80915050919050565b6040518060a0016040528060008152602001600073ffffffffffffffffffffffffffffffffffffffff168152602001600073ffffffffffffffffffffffffffffffffffffffff168152602001600081526020016000151581525090565b6000604051905090565b600080fd5b600080fd5b60007fffffffff0000000000000000000000000000000000000000000000000000000082169050919050565b61302381612fee565b811461302e57600080fd5b50565b6000813590506130408161301a565b92915050565b60006020828403121561305c5761305b612fe4565b5b600061306a84828501613031565b91505092915050565b60008115159050919050565b61308881613073565b82525050565b60006020820190506130a3600083018461307f565b92915050565b600081519050919050565b600082825260208201905092915050565b60005b838110156130e35780820151818401526020810190506130c8565b60008484015250505050565b6000601f19601f8301169050919050565b600061310b826130a9565b61311581856130b4565b93506131258185602086016130c5565b61312e816130ef565b840191505092915050565b600060208201905081810360008301526131538184613100565b905092915050565b6000819050919050565b61316e8161315b565b811461317957600080fd5b50565b60008135905061318b81613165565b92915050565b6000602082840312156131a7576131a6612fe4565b5b60006131b58482850161317c565b91505092915050565b600073ffffffffffffffffffffffffffffffffffffffff82169050919050565b60006131e9826131be565b9050919050565b6131f9816131de565b82525050565b600060208201905061321460008301846131f0565b92915050565b613223816131de565b811461322e57600080fd5b50565b6000813590506132408161321a565b92915050565b6000806040838503121561325d5761325c612fe4565b5b600061326b85828601613231565b925050602061327c8582860161317c565b9150509250929050565b600081519050919050565b600082825260208201905092915050565b6000819050602082019050919050565b6132bb8161315b565b82525050565b60006132cc826131be565b9050919050565b6132dc816132c1565b82525050565b6132eb81613073565b82525050565b60a08201600082015161330760008501826132b2565b50602082015161331a60208501826132d3565b50604082015161332d60408501826132d3565b50606082015161334060608501826132b2565b50608082015161335360808501826132e2565b50505050565b600061336583836132f1565b60a08301905092915050565b6000602082019050919050565b600061338982613286565b6133938185613291565b935061339e836132a2565b8060005b838110156133cf5781516133b68882613359565b97506133c183613371565b9250506001810190506133a2565b5085935050505092915050565b600060208201905081810360008301526133f6818461337e565b905092915050565b6134078161315b565b82525050565b600060208201905061342260008301846133fe565b92915050565b60008060006060848603121561344157613440612fe4565b5b600061344f86828701613231565b935050602061346086828701613231565b92505060406134718682870161317c565b9150509250925092565b6000806040838503121561349257613491612fe4565b5b60006134a08582860161317c565b92505060206134b18582860161317c565b9150509250929050565b60006040820190506134d060008301856131f0565b6134dd60208301846133fe565b9392505050565b6000602082840312156134fa576134f9612fe4565b5b600061350884828501613231565b91505092915050565b61351a81613073565b811461352557600080fd5b50565b60008135905061353781613511565b92915050565b6000806040838503121561355457613553612fe4565b5b600061356285828601613231565b925050602061357385828601613528565b9150509250929050565b600080fd5b600080fd5b7f4e487b7100000000000000000000000000000000000000000000000000000000600052604160045260246000fd5b6135bf826130ef565b810181811067ffffffffffffffff821117156135de576135dd613587565b5b80604052505050565b60006135f1612fda565b90506135fd82826135b6565b919050565b600067ffffffffffffffff82111561361d5761361c613587565b5b613626826130ef565b9050602081019050919050565b82818337600083830152505050565b600061365561365084613602565b6135e7565b90508281526020810184848401111561367157613670613582565b5b61367c848285613633565b509392505050565b600082601f8301126136995761369861357d565b5b81356136a9848260208601613642565b91505092915050565b600080600080608085870312156136cc576136cb612fe4565b5b60006136da87828801613231565b94505060206136eb87828801613231565b93505060406136fc8782880161317c565b925050606085013567ffffffffffffffff81111561371d5761371c612fe9565b5b61372987828801613684565b91505092959194509250565b600067ffffffffffffffff8211156137505761374f613587565b5b613759826130ef565b9050602081019050919050565b600061377961377484613735565b6135e7565b90508281526020810184848401111561379557613794613582565b5b6137a0848285613633565b509392505050565b600082601f8301126137bd576137bc61357d565b5b81356137cd848260208601613766565b91505092915050565b6000806000606084860312156137ef576137ee612fe4565b5b600084013567ffffffffffffffff81111561380d5761380c612fe9565b5b613819868287016137a8565b935050602061382a8682870161317c565b925050604061383b8682870161317c565b9150509250925092565b6000806040838503121561385c5761385b612fe4565b5b600061386a85828601613231565b925050602061387b85828601613231565b9150509250929050565b7f4e487b7100000000000000000000000000000000000000000000000000000000600052602260045260246000fd5b600060028204905060018216806138cc57607f821691505b6020821081036138df576138de613885565b5b50919050565b7f4552433732313a20617070726f76616c20746f2063757272656e74206f776e6560008201527f7200000000000000000000000000000000000000000000000000000000000000602082015250565b60006139416021836130b4565b915061394c826138e5565b604082019050919050565b6000602082019050818103600083015261397081613934565b9050919050565b7f4552433732313a20617070726f76652063616c6c6572206973206e6f7420746f60008201527f6b656e206f776e6572206f7220617070726f76656420666f7220616c6c000000602082015250565b60006139d3603d836130b4565b91506139de82613977565b604082019050919050565b60006020820190508181036000830152613a02816139c6565b9050919050565b7f4e487b7100000000000000000000000000000000000000000000000000000000600052601160045260246000fd5b6000613a438261315b565b9150613a4e8361315b565b9250828203905081811115613a6657613a65613a09565b5b92915050565b6000613a778261315b565b9150613a828361315b565b9250828201905080821115613a9a57613a99613a09565b5b92915050565b7f4e487b7100000000000000000000000000000000000000000000000000000000600052603260045260246000fd5b6000613ada8261315b565b91507fffffffffffffffffffffffffffffffffffffffffffffffffffffffffffffffff8203613b0c57613b0b613a09565b5b600182019050919050565b7f4552433732313a2063616c6c6572206973206e6f7420746f6b656e206f776e6560008201527f72206f7220617070726f76656400000000000000000000000000000000000000602082015250565b6000613b73602d836130b4565b9150613b7e82613b17565b604082019050919050565b60006020820190508181036000830152613ba281613b66565b9050919050565b6000613bb48261315b565b9150613bbf8361315b565b9250828202613bcd8161315b565b91508282048414831517613be457613be3613a09565b5b5092915050565b7f4e487b7100000000000000000000000000000000000000000000000000000000600052601260045260246000fd5b6000613c258261315b565b9150613c308361315b565b925082613c4057613c3f613beb565b5b828204905092915050565b7f4552433732313a20696e76616c696420746f6b656e2049440000000000000000600082015250565b6000613c816018836130b4565b9150613c8c82613c4b565b602082019050919050565b60006020820190508181036000830152613cb081613c74565b9050919050565b7f4552433732313a2061646472657373207a65726f206973206e6f74206120766160008201527f6c6964206f776e65720000000000000000000000000000000000000000000000602082015250565b6000613d136029836130b4565b9150613d1e82613cb7565b604082019050919050565b60006020820190508181036000830152613d4281613d06565b9050919050565b7f4f6e6c79206f776e6572206f6620746865206d61726b6574706c61636520636160008201527f6e206368616e676520746865206c697374696e67207072696365000000000000602082015250565b6000613da5603a836130b4565b9150613db082613d49565b604082019050919050565b60006020820190508181036000830152613dd481613d98565b9050919050565b7f4f6e6c79206d61726b6574706c616365206f776e65722063616e20757064617460008201527f65206c697374696e672070726963652e00000000000000000000000000000000602082015250565b6000613e376030836130b4565b9150613e4282613ddb565b604082019050919050565b60006020820190508181036000830152613e6681613e2a565b9050919050565b7f506c65617365207375626d6974207468652061736b696e67207072696365206960008201527f6e206f7264657220746f20636f6d706c65746520746865207075726368617365602082015250565b6000613ec96040836130b4565b9150613ed482613e6d565b604082019050919050565b60006020820190508181036000830152613ef881613ebc565b9050919050565b600081905092915050565b6000613f15826130a9565b613f1f8185613eff565b9350613f2f8185602086016130c5565b80840191505092915050565b6000613f478285613f0a565b9150613f538284613f0a565b91508190509392505050565b7f4f6e6c79206974656d206f776e65722063616e20706572666f726d207468697360008201527f206f7065726174696f6e00000000000000000000000000000000000000000000602082015250565b6000613fbb602a836130b4565b9150613fc682613f5f565b604082019050919050565b60006020820190508181036000830152613fea81613fae565b9050919050565b7f5072696365206d75737420626520657175616c20746f206c697374696e67207060008201527f7269636500000000000000000000000000000000000000000000000000000000602082015250565b600061404d6024836130b4565b915061405882613ff1565b604082019050919050565b6000602082019050818103600083015261407c81614040565b9050919050565b7f4552433732313a207472616e736665722066726f6d20696e636f72726563742060008201527f6f776e6572000000000000000000000000000000000000000000000000000000602082015250565b60006140df6025836130b4565b91506140ea82614083565b604082019050919050565b6000602082019050818103600083015261410e816140d2565b9050919050565b7f4552433732313a207472616e7366657220746f20746865207a65726f2061646460008201527f7265737300000000000000000000000000000000000000000000000000000000602082015250565b60006141716024836130b4565b915061417c82614115565b604082019050919050565b600060208201905081810360008301526141a081614164565b9050919050565b7f4552433732313a20617070726f766520746f2063616c6c657200000000000000600082015250565b60006141dd6019836130b4565b91506141e8826141a7565b602082019050919050565b6000602082019050818103600083015261420c816141d0565b9050919050565b7f4552433732313a207472616e7366657220746f206e6f6e20455243373231526560008201527f63656976657220696d706c656d656e7465720000000000000000000000000000602082015250565b600061426f6032836130b4565b915061427a82614213565b604082019050919050565b6000602082019050818103600083015261429e81614262565b9050919050565b7f4552433732313a206d696e7420746f20746865207a65726f2061646472657373600082015250565b60006142db6020836130b4565b91506142e6826142a5565b602082019050919050565b6000602082019050818103600083015261430a816142ce565b9050919050565b7f4552433732313a20746f6b656e20616c7265616479206d696e74656400000000600082015250565b6000614347601c836130b4565b915061435282614311565b602082019050919050565b600060208201905081810360008301526143768161433a565b9050919050565b7f45524337323155524953746f726167653a2055524920736574206f66206e6f6e60008201527f6578697374656e7420746f6b656e000000000000000000000000000000000000602082015250565b60006143d9602e836130b4565b91506143e48261437d565b604082019050919050565b60006020820190508181036000830152614408816143cc565b9050919050565b60008190508160005260206000209050919050565b60006020601f8301049050919050565b600082821b905092915050565b6000600883026144717fffffffffffffffffffffffffffffffffffffffffffffffffffffffffffffffff82614434565b61447b8683614434565b95508019841693508086168417925050509392505050565b6000819050919050565b60006144b86144b36144ae8461315b565b614493565b61315b565b9050919050565b6000819050919050565b6144d28361449d565b6144e66144de826144bf565b848454614441565b825550505050565b600090565b6144fb6144ee565b6145068184846144c9565b505050565b5b8181101561452a5761451f6000826144f3565b60018101905061450c565b5050565b601f82111561456f576145408161440f565b61454984614424565b81016020851015614558578190505b61456c61456485614424565b83018261450b565b50505b505050565b600082821c905092915050565b600061459260001984600802614574565b1980831691505092915050565b60006145ab8383614581565b9150826002028217905092915050565b6145c4826130a9565b67ffffffffffffffff8111156145dd576145dc613587565b5b6145e782546138b4565b6145f282828561452e565b600060209050601f8311600181146146255760008415614613578287015190505b61461d858261459f565b865550614685565b601f1984166146338661440f565b60005b8281101561465b57848901518255600182019150602085019450602081019050614636565b868310156146785784890151614674601f891682614581565b8355505b6001600288020188555050505b505050505050565b7f5072696365206d757374206265206174206c6561737420312077656900000000600082015250565b60006146c3601c836130b4565b91506146ce8261468d565b602082019050919050565b600060208201905081810360008301526146f2816146b6565b9050919050565b600060808201905061470e60008301876131f0565b61471b60208301866131f0565b61472860408301856133fe565b614735606083018461307f565b95945050505050565b7f436f756e7465723a2064656372656d656e74206f766572666c6f770000000000600082015250565b6000614774601b836130b4565b915061477f8261473e565b602082019050919050565b600060208201905081810360008301526147a381614767565b9050919050565b600081519050919050565b600082825260208201905092915050565b60006147d1826147aa565b6147db81856147b5565b93506147eb8185602086016130c5565b6147f4816130ef565b840191505092915050565b600060808201905061481460008301876131f0565b61482160208301866131f0565b61482e60408301856133fe565b818103606083015261484081846147c6565b905095945050505050565b60008151905061485a8161301a565b92915050565b60006020828403121561487657614875612fe4565b5b60006148848482850161484b565b9150509291505056fea2646970667358221220638d1a0d997325eced7eab4d4a0179e99d982e27ed259467097be2ebff6dd45064736f6c63430008110033",
  "linkReferences": {},
  "deployedLinkReferences": {}
}